{"abi":[{"type":"constructor","inputs":[{"name":"_usernameRegistry","type":"address","internalType":"address"}],"stateMutability":"nonpayable"},{"type":"function","name":"BASIS_POINTS","inputs":[],"outputs":[{"name":"","type":"uint256","internalType":"uint256"}],"stateMutability":"view"},{"type":"function","name":"FEE_PERCENTAGE","inputs":[],"outputs":[{"name":"","type":"uint256","internalType":"uint256"}],"stateMutability":"view"},{"type":"function","name":"addSupportedToken","inputs":[{"name":"token","type":"address","internalType":"address"}],"outputs":[],"stateMutability":"nonpayable"},{"type":"function","name":"calculateFee","inputs":[{"name":"amount","type":"uint256","internalType":"uint256"}],"outputs":[{"name":"","type":"uint256","internalType":"uint256"}],"stateMutability":"pure"},{"type":"function","name":"owner","inputs":[],"outputs":[{"name":"","type":"address","internalType":"address"}],"stateMutability":"view"},{"type":"function","name":"removeSupportedToken","inputs":[{"name":"token","type":"address","internalType":"address"}],"outputs":[],"stateMutability":"nonpayable"},{"type":"function","name":"renounceOwnership","inputs":[],"outputs":[],"stateMutability":"nonpayable"},{"type":"function","name":"sendPayment","inputs":[{"name":"toUsername","type":"string","internalType":"string"},{"name":"token","type":"address","internalType":"address"},{"name":"amount","type":"uint256","internalType":"uint256"}],"outputs":[],"stateMutability":"nonpayable"},{"type":"function","name":"supportedTokens","inputs":[{"name":"","type":"address","internalType":"address"}],"outputs":[{"name":"","type":"bool","internalType":"bool"}],"stateMutability":"view"},{"type":"function","name":"transferOwnership","inputs":[{"name":"newOwner","type":"address","internalType":"address"}],"outputs":[],"stateMutability":"nonpayable"},{"type":"function","name":"usernameRegistry","inputs":[],"outputs":[{"name":"","type":"address","internalType":"contract UsernameRegistry"}],"stateMutability":"view"},{"type":"event","name":"OwnershipTransferred","inputs":[{"name":"previousOwner","type":"address","indexed":true,"internalType":"address"},{"name":"newOwner","type":"address","indexed":true,"internalType":"address"}],"anonymous":false},{"type":"event","name":"PaymentSent","inputs":[{"name":"from","type":"address","indexed":true,"internalType":"address"},{"name":"to","type":"address","indexed":true,"internalType":"address"},{"name":"token","type":"address","indexed":true,"internalType":"address"},{"name":"amount","type":"uint256","indexed":false,"internalType":"uint256"},{"name":"fee","type":"uint256","indexed":false,"internalType":"uint256"},{"name":"fromUsername","type":"string","indexed":false,"internalType":"string"},{"name":"toUsername","type":"string","indexed":false,"internalType":"string"}],"anonymous":false},{"type":"event","name":"TokenAdded","inputs":[{"name":"token","type":"address","indexed":true,"internalType":"address"}],"anonymous":false},{"type":"event","name":"TokenRemoved","inputs":[{"name":"token","type":"address","indexed":true,"internalType":"address"}],"anonymous":false},{"type":"error","name":"OwnableInvalidOwner","inputs":[{"name":"owner","type":"address","internalType":"address"}]},{"type":"error","name":"OwnableUnauthorizedAccount","inputs":[{"name":"account","type":"address","internalType":"address"}]},{"type":"error","name":"ReentrancyGuardReentrantCall","inputs":[]},{"type":"error","name":"SafeERC20FailedOperation","inputs":[{"name":"token","type":"address","internalType":"address"}]}],"bytecode":{"object":"0x60a060405234801561000f575f5ffd5b50604051610c20380380610c2083398101604081905261002e916100c1565b338061005357604051631e4fbdf760e01b81525f600482015260240160405180910390fd5b61005c81610072565b50600180556001600160a01b03166080526100ee565b5f80546001600160a01b038381166001600160a01b0319831681178455604051919092169283917f8be0079c531659141344cd1fd0a4f28419497f9722a3daafe3b4186f6b6457e09190a35050565b5f602082840312156100d1575f5ffd5b81516001600160a01b03811681146100e7575f5ffd5b9392505050565b608051610b0c6101145f395f8181610162015281816103a801526105090152610b0c5ff3fe608060405234801561000f575f5ffd5b50600436106100a5575f3560e01c80638da5cb5b1161006e5780638da5cb5b1461012657806399a5d7471461014a578063c57f6c381461015d578063d2fc2ed914610184578063e1f1c4a714610197578063f2fde38b146101a0575f5ffd5b80620b46f8146100a957806368c4ac26146100c45780636d69fcaf146100f6578063715018a61461010b5780637631919014610113575b5f5ffd5b6100b1603281565b6040519081526020015b60405180910390f35b6100e66100d2366004610833565b60026020525f908152604090205460ff1681565b60405190151581526020016100bb565b610109610104366004610833565b6101b3565b005b610109610259565b610109610121366004610833565b61026c565b5f546001600160a01b03165b6040516001600160a01b0390911681526020016100bb565b6100b1610158366004610855565b6102bc565b6101327f000000000000000000000000000000000000000000000000000000000000000081565b6101096101923660046108d8565b6102db565b6100b161271081565b6101096101ae366004610833565b610633565b6101bb610670565b6001600160a01b03811661020e5760405162461bcd60e51b8152602060048201526015602482015274496e76616c696420746f6b656e206164647265737360581b60448201526064015b60405180910390fd5b6001600160a01b0381165f81815260026020526040808220805460ff19166001179055517f784c8f4dbf0ffedd6e72c76501c545a70f8b203b30a26ce542bf92ba87c248a49190a250565b610261610670565b61026a5f61069c565b565b610274610670565b6001600160a01b0381165f81815260026020526040808220805460ff19169055517f4c910b69fe65a61f7531b9c5042b2329ca7179c77290aa7e2eb3afa3c8511fd39190a250565b5f6127106102cb603284610982565b6102d59190610999565b92915050565b6102e36106eb565b6001600160a01b0382165f9081526002602052604090205460ff166103405760405162461bcd60e51b8152602060048201526013602482015272151bdad95b881b9bdd081cdd5c1c1bdc9d1959606a1b6044820152606401610205565b5f811161038f5760405162461bcd60e51b815260206004820152601d60248201527f416d6f756e74206d7573742062652067726561746572207468616e20300000006044820152606401610205565b60405163bf40fac160e01b81525f906001600160a01b037f0000000000000000000000000000000000000000000000000000000000000000169063bf40fac1906103dd9087906004016109e6565b602060405180830381865afa1580156103f8573d5f5f3e3d5ffd5b505050506040513d601f19601f8201168201806040525081019061041c91906109f8565b90506001600160a01b0381166104695760405162461bcd60e51b8152602060048201526012602482015271155cd95c9b985b59481b9bdd08199bdd5b9960721b6044820152606401610205565b336001600160a01b038216036104c15760405162461bcd60e51b815260206004820152601760248201527f43616e6e6f742073656e6420746f20796f757273656c660000000000000000006044820152606401610205565b5f6127106104d0603285610982565b6104da9190610999565b90505f6104e78285610a13565b604051636721e01960e11b81523360048201529091505f906001600160a01b037f0000000000000000000000000000000000000000000000000000000000000000169063ce43c032906024015f60405180830381865afa15801561054d573d5f5f3e3d5ffd5b505050506040513d5f823e601f3d908101601f191682016040526105749190810190610a26565b90508661058c6001600160a01b038816333089610715565b6105a06001600160a01b0388168685610782565b6105c56105b45f546001600160a01b031690565b6001600160a01b0389169086610782565b866001600160a01b0316856001600160a01b0316336001600160a01b03167f8214bd12bcfbfe42007b8a7e0e1b27bb26f2334b23a4af027991650d54347203898887876040516106189493929190610a9b565b60405180910390a4505050505061062e60018055565b505050565b61063b610670565b6001600160a01b03811661066457604051631e4fbdf760e01b81525f6004820152602401610205565b61066d8161069c565b50565b5f546001600160a01b0316331461026a5760405163118cdaa760e01b8152336004820152602401610205565b5f80546001600160a01b038381166001600160a01b0319831681178455604051919092169283917f8be0079c531659141344cd1fd0a4f28419497f9722a3daafe3b4186f6b6457e09190a35050565b60026001540361070e57604051633ee5aeb560e01b815260040160405180910390fd5b6002600155565b6040516001600160a01b03848116602483015283811660448301526064820183905261077c9186918216906323b872dd906084015b604051602081830303815290604052915060e01b6020820180516001600160e01b0383818316178352505050506107b3565b50505050565b6040516001600160a01b0383811660248301526044820183905261062e91859182169063a9059cbb9060640161074a565b5f5f60205f8451602086015f885af1806107d2576040513d5f823e3d81fd5b50505f513d915081156107e95780600114156107f6565b6001600160a01b0384163b155b1561077c57604051635274afe760e01b81526001600160a01b0385166004820152602401610205565b6001600160a01b038116811461066d575f5ffd5b5f60208284031215610843575f5ffd5b813561084e8161081f565b9392505050565b5f60208284031215610865575f5ffd5b5035919050565b634e487b7160e01b5f52604160045260245ffd5b604051601f8201601f1916810167ffffffffffffffff811182821017156108a9576108a961086c565b604052919050565b5f67ffffffffffffffff8211156108ca576108ca61086c565b50601f01601f191660200190565b5f5f5f606084860312156108ea575f5ffd5b833567ffffffffffffffff811115610900575f5ffd5b8401601f81018613610910575f5ffd5b803561092361091e826108b1565b610880565b818152876020838501011115610937575f5ffd5b816020840160208301375f60208383010152809550505050602084013561095d8161081f565b929592945050506040919091013590565b634e487b7160e01b5f52601160045260245ffd5b80820281158282048414176102d5576102d561096e565b5f826109b357634e487b7160e01b5f52601260045260245ffd5b500490565b5f81518084528060208401602086015e5f602082860101526020601f19601f83011685010191505092915050565b602081525f61084e60208301846109b8565b5f60208284031215610a08575f5ffd5b815161084e8161081f565b818103818111156102d5576102d561096e565b5f60208284031215610a36575f5ffd5b815167ffffffffffffffff811115610a4c575f5ffd5b8201601f81018413610a5c575f5ffd5b8051610a6a61091e826108b1565b818152856020838501011115610a7e575f5ffd5b8160208401602083015e5f91810160200191909152949350505050565b848152836020820152608060408201525f610ab960808301856109b8565b8281036060840152610acb81856109b8565b97965050505050505056fea2646970667358221220dc96041a44c741702245c6a07822e3f87b39d6c94127a9901adb47809f009d4f64736f6c634300081c0033","linkReferences":{}},"methodIdentifiers":{"BASIS_POINTS()":"e1f1c4a7","FEE_PERCENTAGE()":"000b46f8","addSupportedToken(address)":"6d69fcaf","calculateFee(uint256)":"99a5d747","owner()":"8da5cb5b","removeSupportedToken(address)":"76319190","renounceOwnership()":"715018a6","sendPayment(string,address,uint256)":"d2fc2ed9","supportedTokens(address)":"68c4ac26","transferOwnership(address)":"f2fde38b","usernameRegistry()":"c57f6c38"},"id":0}