{"abi":[{"type":"constructor","inputs":[{"name":"_usdcToken","type":"address","internalType":"address"}],"stateMutability":"nonpayable"},{"type":"function","name":"addressToUsername","inputs":[{"name":"","type":"address","internalType":"address"}],"outputs":[{"name":"","type":"string","internalType":"string"}],"stateMutability":"view"},{"type":"function","name":"getAddress","inputs":[{"name":"username","type":"string","internalType":"string"}],"outputs":[{"name":"","type":"address","internalType":"address"}],"stateMutability":"view"},{"type":"function","name":"getFeeBalance","inputs":[],"outputs":[{"name":"","type":"uint256","internalType":"uint256"}],"stateMutability":"view"},{"type":"function","name":"getUsername","inputs":[{"name":"userAddress","type":"address","internalType":"address"}],"outputs":[{"name":"","type":"string","internalType":"string"}],"stateMutability":"view"},{"type":"function","name":"isUsernameAvailable","inputs":[{"name":"username","type":"string","internalType":"string"}],"outputs":[{"name":"","type":"bool","internalType":"bool"}],"stateMutability":"view"},{"type":"function","name":"isValidUsername","inputs":[{"name":"username","type":"string","internalType":"string"}],"outputs":[{"name":"","type":"bool","internalType":"bool"}],"stateMutability":"pure"},{"type":"function","name":"owner","inputs":[],"outputs":[{"name":"","type":"address","internalType":"address"}],"stateMutability":"view"},{"type":"function","name":"premiumFee","inputs":[],"outputs":[{"name":"","type":"uint256","internalType":"uint256"}],"stateMutability":"view"},{"type":"function","name":"premiumUsernames","inputs":[{"name":"","type":"string","internalType":"string"}],"outputs":[{"name":"","type":"bool","internalType":"bool"}],"stateMutability":"view"},{"type":"function","name":"registerPremiumUsername","inputs":[{"name":"username","type":"string","internalType":"string"}],"outputs":[],"stateMutability":"nonpayable"},{"type":"function","name":"registerUsername","inputs":[{"name":"username","type":"string","internalType":"string"}],"outputs":[],"stateMutability":"nonpayable"},{"type":"function","name":"registerUsernameForAddress","inputs":[{"name":"username","type":"string","internalType":"string"},{"name":"walletAddress","type":"address","internalType":"address"},{"name":"feePayer","type":"address","internalType":"address"}],"outputs":[],"stateMutability":"nonpayable"},{"type":"function","name":"registrationFee","inputs":[],"outputs":[{"name":"","type":"uint256","internalType":"uint256"}],"stateMutability":"view"},{"type":"function","name":"renounceOwnership","inputs":[],"outputs":[],"stateMutability":"nonpayable"},{"type":"function","name":"setPremiumFee","inputs":[{"name":"newFee","type":"uint256","internalType":"uint256"}],"outputs":[],"stateMutability":"nonpayable"},{"type":"function","name":"setRegistrationFee","inputs":[{"name":"newFee","type":"uint256","internalType":"uint256"}],"outputs":[],"stateMutability":"nonpayable"},{"type":"function","name":"transferOwnership","inputs":[{"name":"newOwner","type":"address","internalType":"address"}],"outputs":[],"stateMutability":"nonpayable"},{"type":"function","name":"transferUsername","inputs":[{"name":"to","type":"address","internalType":"address"}],"outputs":[],"stateMutability":"nonpayable"},{"type":"function","name":"updateUsername","inputs":[{"name":"newUsername","type":"string","internalType":"string"}],"outputs":[],"stateMutability":"nonpayable"},{"type":"function","name":"usdcToken","inputs":[],"outputs":[{"name":"","type":"address","internalType":"contract IERC20"}],"stateMutability":"view"},{"type":"function","name":"usernameToAddress","inputs":[{"name":"","type":"string","internalType":"string"}],"outputs":[{"name":"","type":"address","internalType":"address"}],"stateMutability":"view"},{"type":"function","name":"withdrawFees","inputs":[{"name":"to","type":"address","internalType":"address"}],"outputs":[],"stateMutability":"nonpayable"},{"type":"event","name":"FeesWithdrawn","inputs":[{"name":"to","type":"address","indexed":true,"internalType":"address"},{"name":"amount","type":"uint256","indexed":false,"internalType":"uint256"}],"anonymous":false},{"type":"event","name":"OwnershipTransferred","inputs":[{"name":"previousOwner","type":"address","indexed":true,"internalType":"address"},{"name":"newOwner","type":"address","indexed":true,"internalType":"address"}],"anonymous":false},{"type":"event","name":"PremiumFeeUpdated","inputs":[{"name":"oldFee","type":"uint256","indexed":false,"internalType":"uint256"},{"name":"newFee","type":"uint256","indexed":false,"internalType":"uint256"}],"anonymous":false},{"type":"event","name":"PremiumUsernameRegistered","inputs":[{"name":"user","type":"address","indexed":true,"internalType":"address"},{"name":"username","type":"string","indexed":false,"internalType":"string"}],"anonymous":false},{"type":"event","name":"RegistrationFeeUpdated","inputs":[{"name":"oldFee","type":"uint256","indexed":false,"internalType":"uint256"},{"name":"newFee","type":"uint256","indexed":false,"internalType":"uint256"}],"anonymous":false},{"type":"event","name":"UsernameRegistered","inputs":[{"name":"user","type":"address","indexed":true,"internalType":"address"},{"name":"username","type":"string","indexed":false,"internalType":"string"},{"name":"isPremium","type":"bool","indexed":false,"internalType":"bool"}],"anonymous":false},{"type":"event","name":"UsernameTransferred","inputs":[{"name":"from","type":"address","indexed":true,"internalType":"address"},{"name":"to","type":"address","indexed":true,"internalType":"address"},{"name":"username","type":"string","indexed":false,"internalType":"string"}],"anonymous":false},{"type":"event","name":"UsernameUpdated","inputs":[{"name":"user","type":"address","indexed":true,"internalType":"address"},{"name":"oldUsername","type":"string","indexed":false,"internalType":"string"},{"name":"newUsername","type":"string","indexed":false,"internalType":"string"}],"anonymous":false},{"type":"error","name":"OwnableInvalidOwner","inputs":[{"name":"owner","type":"address","internalType":"address"}]},{"type":"error","name":"OwnableUnauthorizedAccount","inputs":[{"name":"account","type":"address","internalType":"address"}]},{"type":"error","name":"ReentrancyGuardReentrantCall","inputs":[]},{"type":"error","name":"SafeERC20FailedOperation","inputs":[{"name":"token","type":"address","internalType":"address"}]}],"bytecode":{"object":"0x60a060405234801561000f575f5ffd5b50604051611c15380380611c1583398101604081905261002e91610121565b338061005457604051631e4fbdf760e01b81525f60048201526024015b60405180910390fd5b61005d816100d2565b50600180556001600160a01b0381166100b85760405162461bcd60e51b815260206004820152601460248201527f496e76616c696420555344432061646472657373000000000000000000000000604482015260640161004b565b6001600160a01b03166080525f600581905560065561014e565b5f80546001600160a01b038381166001600160a01b0319831681178455604051919092169283917f8be0079c531659141344cd1fd0a4f28419497f9722a3daafe3b4186f6b6457e09190a35050565b5f60208284031215610131575f5ffd5b81516001600160a01b0381168114610147575f5ffd5b9392505050565b608051611a856101905f395f81816101460152818161038a01528181610454015281816105310152818161095701528181610c4301526110c40152611a855ff3fe608060405234801561000f575f5ffd5b506004361061013d575f3560e01c8063bf40fac1116100b4578063d4c30ceb11610079578063d4c30ceb146102c8578063e045ae32146102d0578063e07a0baa146102e3578063f2fde38b146102f6578063f69c6dec14610309578063f825f1431461031c575f5ffd5b8063bf40fac114610241578063c320c72714610254578063c45548fc14610267578063c96cea7014610295578063ce43c032146102a8575f5ffd5b8063344b15fb11610105578063344b15fb146101cd57806336a94134146101e05780633b032005146101f3578063715018a6146102165780637207dd091461021e5780638da5cb5b14610231575f5ffd5b806311eac8551461014157806314c44e0914610185578063164e68de1461019c578063209c9523146101b157806323bba240146101ba575b5f5ffd5b6101687f000000000000000000000000000000000000000000000000000000000000000081565b6040516001600160a01b0390911681526020015b60405180910390f35b61018e60055481565b60405190815260200161017c565b6101af6101aa36600461167b565b610350565b005b61018e60065481565b6101af6101c8366004611733565b6104c2565b6101af6101db36600461167b565b61066d565b6101af6101ee366004611733565b6108e7565b610206610201366004611733565b610a13565b604051901515815260200161017c565b6101af610b1f565b6101af61022c36600461176d565b610b32565b5f546001600160a01b0316610168565b61016861024f366004611733565b610d13565b6101af6102623660046117c7565b610d63565b610206610275366004611733565b805160208183018101805160048252928201919093012091525460ff1681565b6101af6102a3366004611733565b610db1565b6102bb6102b636600461167b565b611004565b60405161017c919061180c565b61018e6110ad565b6101af6102de3660046117c7565b61113a565b6102bb6102f136600461167b565b611180565b6101af61030436600461167b565b611217565b610206610317366004611733565b611251565b61016861032a366004611733565b80516020818301810180516002825292820191909301209152546001600160a01b031681565b610358611299565b6001600160a01b03811661037357505f546001600160a01b03165b6040516370a0823160e01b81523060048201525f907f00000000000000000000000000000000000000000000000000000000000000006001600160a01b0316906370a0823190602401602060405180830381865afa1580156103d7573d5f5f3e3d5ffd5b505050506040513d601f19601f820116820180604052508101906103fb919061181e565b90505f81116104475760405162461bcd60e51b81526020600482015260136024820152724e6f206665657320746f20776974686472617760681b60448201526064015b60405180910390fd5b61047b6001600160a01b037f00000000000000000000000000000000000000000000000000000000000000001683836112c5565b816001600160a01b03167fc0819c13be868895eb93e40eaceb96de976442fa1d404e5c55f14bb65a8c489a826040516104b691815260200190565b60405180910390a25050565b6104ca611324565b6104d38161134e565b335f90815260036020526040902080546104ec90611835565b15905061050b5760405162461bcd60e51b815260040161043e9061186d565b5f610515826114c2565b6006549091501561055b5760065461055b906001600160a01b037f0000000000000000000000000000000000000000000000000000000000000000169033903090611566565b3360028260405161056c91906118a4565b908152604080516020928190038301902080546001600160a01b0319166001600160a01b039490941693909317909255335f9081526003909152206105b18282611905565b5060016004826040516105c491906118a4565b908152604051908190036020018120805492151560ff199093169290921790915533907fc36d46ad833e5308d16a724481ce4dfa7eeb5b17e6e3871cb5cfca85ae9917999061061490849061180c565b60405180910390a2336001600160a01b03167f810135d029ee569e57844deaa290c06c21b8fda6ce62e6e07a652c4632d1b71a8260016040516106589291906119c0565b60405180910390a25061066a60018055565b50565b610675611324565b6001600160a01b0381166106bf5760405162461bcd60e51b8152602060048201526011602482015270125b9d985b1a59081c9958da5c1a595b9d607a1b604482015260640161043e565b6001600160a01b0381165f90815260036020526040902080546106e190611835565b1590506107305760405162461bcd60e51b815260206004820152601e60248201527f526563697069656e7420616c72656164792068617320757365726e616d650000604482015260640161043e565b335f908152600360205260408120805461074990611835565b80601f016020809104026020016040519081016040528092919081815260200182805461077590611835565b80156107c05780601f10610797576101008083540402835291602001916107c0565b820191905f5260205f20905b8154815290600101906020018083116107a357829003601f168201915b505050505090505f8151116108175760405162461bcd60e51b815260206004820152601760248201527f4e6f20757365726e616d6520746f207472616e73666572000000000000000000604482015260640161043e565b60408051602080820183525f8083523381526003909152919091209061083d9082611905565b508160028260405161084f91906118a4565b908152604080516020928190038301902080546001600160a01b0319166001600160a01b039485161790559184165f9081526003909152206108918282611905565b50816001600160a01b0316336001600160a01b03167fa0f47f222048163fc5aea44a9633eac495e06062b4aa98d9d5b918e53e177fc1836040516108d5919061180c565b60405180910390a35061066a60018055565b6108ef611324565b6108f88161134e565b5f610902826114c2565b335f90815260036020526040902080549192509061091f90611835565b15905061093e5760405162461bcd60e51b815260040161043e9061186d565b6005541561098157600554610981906001600160a01b037f0000000000000000000000000000000000000000000000000000000000000000169033903090611566565b3360028260405161099291906118a4565b908152604080516020928190038301902080546001600160a01b0319166001600160a01b039490941693909317909255335f9081526003909152206109d78282611905565b50336001600160a01b03167f810135d029ee569e57844deaa290c06c21b8fda6ce62e6e07a652c4632d1b71a825f6040516106589291906119c0565b80515f9082908203610a2757505f92915050565b5f5b8151811015610b15575f828281518110610a4557610a456119e3565b01602001516001600160f81b0319169050600360fc1b8110801590610a785750603960f81b6001600160f81b0319821611155b158015610aae5750604160f81b6001600160f81b0319821610801590610aac5750602d60f91b6001600160f81b0319821611155b155b8015610ae35750606160f81b6001600160f81b0319821610801590610ae15750603d60f91b6001600160f81b0319821611155b155b8015610afd5750605f60f81b6001600160f81b0319821614155b15610b0c57505f949350505050565b50600101610a29565b5060019392505050565b610b27611299565b610b305f6115a5565b565b610b3a611324565b610b438361134e565b6001600160a01b038216610b925760405162461bcd60e51b8152602060048201526016602482015275496e76616c69642077616c6c6574206164647265737360501b604482015260640161043e565b6001600160a01b0382165f9081526003602052604090208054610bb490611835565b159050610bd35760405162461bcd60e51b815260040161043e9061186d565b5f610bdd846114c2565b60055490915015610c6d576001600160a01b038216610c325760405162461bcd60e51b815260206004820152601160248201527024b73b30b634b2103332b2903830bcb2b960791b604482015260640161043e565b600554610c6d906001600160a01b037f0000000000000000000000000000000000000000000000000000000000000000169084903090611566565b82600282604051610c7e91906118a4565b908152604080516020928190038301902080546001600160a01b0319166001600160a01b039485161790559185165f908152600390915220610cc08282611905565b50826001600160a01b03167f810135d029ee569e57844deaa290c06c21b8fda6ce62e6e07a652c4632d1b71a825f604051610cfc9291906119c0565b60405180910390a250610d0e60018055565b505050565b5f5f610d1e836114c2565b90505f600282604051610d3191906118a4565b908152604051908190036020019020546001600160a01b03169050308103610d5c57505f9392505050565b9392505050565b610d6b611299565b600580549082905560408051828152602081018490527f50b218c5a101ad05d53ab0a964d01da639ee79525ae4b7802ed714249740a8d591015b60405180910390a15050565b610db9611324565b335f9081526003602052604081208054610dd290611835565b80601f0160208091040260200160405190810160405280929190818152602001828054610dfe90611835565b8015610e495780601f10610e2057610100808354040283529160200191610e49565b820191905f5260205f20905b815481529060010190602001808311610e2c57829003601f168201915b505050505090505f815111610e985760405162461bcd60e51b81526020600482015260156024820152744e6f20757365726e616d6520746f2075706461746560581b604482015260640161043e565b600481604051610ea891906118a4565b9081526040519081900360200190205460ff1615610f085760405162461bcd60e51b815260206004820152601e60248201527f43616e6e6f7420757064617465207072656d69756d20757365726e616d650000604482015260640161043e565b610f118261134e565b5f610f1b836114c2565b90505f600283604051610f2e91906118a4565b90815260200160405180910390205f6101000a8154816001600160a01b0302191690836001600160a01b0316021790555033600282604051610f7091906118a4565b908152604080516020928190038301902080546001600160a01b0319166001600160a01b039490941693909317909255335f908152600390915220610fb58282611905565b50336001600160a01b03167f13428138c872937c879d86da5f1947a7625d28588e4f7f2c44bcb70abbd774738383604051610ff19291906119f7565b60405180910390a2505061066a60018055565b6001600160a01b0381165f90815260036020526040902080546060919061102a90611835565b80601f016020809104026020016040519081016040528092919081815260200182805461105690611835565b80156110a15780601f10611078576101008083540402835291602001916110a1565b820191905f5260205f20905b81548152906001019060200180831161108457829003601f168201915b50505050509050919050565b6040516370a0823160e01b81523060048201525f907f00000000000000000000000000000000000000000000000000000000000000006001600160a01b0316906370a0823190602401602060405180830381865afa158015611111573d5f5f3e3d5ffd5b505050506040513d601f19601f82011682018060405250810190611135919061181e565b905090565b611142611299565b600680549082905560408051828152602081018490527f530b89ea399e23e81efbf2979ec02ae5af1e52d329d1e6c693489048bf301a879101610da5565b60036020525f90815260409020805461119890611835565b80601f01602080910402602001604051908101604052809291908181526020018280546111c490611835565b801561120f5780601f106111e65761010080835404028352916020019161120f565b820191905f5260205f20905b8154815290600101906020018083116111f257829003601f168201915b505050505081565b61121f611299565b6001600160a01b03811661124857604051631e4fbdf760e01b81525f600482015260240161043e565b61066a816115a5565b5f5f61125c836114c2565b90505f6001600160a01b031660028260405161127891906118a4565b908152604051908190036020019020546001600160a01b0316149392505050565b5f546001600160a01b03163314610b305760405163118cdaa760e01b815233600482015260240161043e565b6040516001600160a01b03838116602483015260448201839052610d0e91859182169063a9059cbb906064015b604051602081830303815290604052915060e01b6020820180516001600160e01b0383818316178352505050506115f4565b60026001540361134757604051633ee5aeb560e01b815260040160405180910390fd5b6002600155565b5f81511161139e5760405162461bcd60e51b815260206004820152601860248201527f557365726e616d652063616e6e6f7420626520656d7074790000000000000000604482015260640161043e565b6020815111156113e45760405162461bcd60e51b8152602060048201526011602482015270557365726e616d6520746f6f206c6f6e6760781b604482015260640161043e565b6113ed81610a13565b6114395760405162461bcd60e51b815260206004820152601760248201527f496e76616c696420757365726e616d6520666f726d6174000000000000000000604482015260640161043e565b5f611443826114c2565b90505f6001600160a01b031660028260405161145f91906118a4565b908152604051908190036020019020546001600160a01b0316146114be5760405162461bcd60e51b81526020600482015260166024820152752ab9b2b93730b6b29030b63932b0b23c903a30b5b2b760511b604482015260640161043e565b5050565b6060815f5b815181101561155f575f8282815181106114e3576114e36119e3565b01602001516001600160f81b0319169050604160f81b81108015906115165750602d60f91b6001600160f81b0319821611155b156115565761152a60f882901c6020611a24565b60f81b83838151811061153f5761153f6119e3565b60200101906001600160f81b03191690815f1a9053505b506001016114c7565b5092915050565b6040516001600160a01b03848116602483015283811660448301526064820183905261159f9186918216906323b872dd906084016112f2565b50505050565b5f80546001600160a01b038381166001600160a01b0319831681178455604051919092169283917f8be0079c531659141344cd1fd0a4f28419497f9722a3daafe3b4186f6b6457e09190a35050565b5f5f60205f8451602086015f885af180611613576040513d5f823e3d81fd5b50505f513d9150811561162a578060011415611637565b6001600160a01b0384163b155b1561159f57604051635274afe760e01b81526001600160a01b038516600482015260240161043e565b80356001600160a01b0381168114611676575f5ffd5b919050565b5f6020828403121561168b575f5ffd5b610d5c82611660565b634e487b7160e01b5f52604160045260245ffd5b5f82601f8301126116b7575f5ffd5b813567ffffffffffffffff8111156116d1576116d1611694565b604051601f8201601f19908116603f0116810167ffffffffffffffff8111828210171561170057611700611694565b604052818152838201602001851015611717575f5ffd5b816020850160208301375f918101602001919091529392505050565b5f60208284031215611743575f5ffd5b813567ffffffffffffffff811115611759575f5ffd5b611765848285016116a8565b949350505050565b5f5f5f6060848603121561177f575f5ffd5b833567ffffffffffffffff811115611795575f5ffd5b6117a1868287016116a8565b9350506117b060208501611660565b91506117be60408501611660565b90509250925092565b5f602082840312156117d7575f5ffd5b5035919050565b5f81518084528060208401602086015e5f602082860101526020601f19601f83011685010191505092915050565b602081525f610d5c60208301846117de565b5f6020828403121561182e575f5ffd5b5051919050565b600181811c9082168061184957607f821691505b60208210810361186757634e487b7160e01b5f52602260045260245ffd5b50919050565b6020808252601c908201527f4164647265737320616c72656164792068617320757365726e616d6500000000604082015260600190565b5f82518060208501845e5f920191825250919050565b601f821115610d0e57805f5260205f20601f840160051c810160208510156118df5750805b601f840160051c820191505b818110156118fe575f81556001016118eb565b5050505050565b815167ffffffffffffffff81111561191f5761191f611694565b6119338161192d8454611835565b846118ba565b6020601f821160018114611965575f831561194e5750848201515b5f19600385901b1c1916600184901b1784556118fe565b5f84815260208120601f198516915b828110156119945787850151825560209485019460019092019101611974565b50848210156119b157868401515f19600387901b60f8161c191681555b50505050600190811b01905550565b604081525f6119d260408301856117de565b905082151560208301529392505050565b634e487b7160e01b5f52603260045260245ffd5b604081525f611a0960408301856117de565b8281036020840152611a1b81856117de565b95945050505050565b60ff8181168382160190811115611a4957634e487b7160e01b5f52601160045260245ffd5b9291505056fea2646970667358221220cb1bd1025500ebb175303f92806ac80f17f299c6ea86491ff2838aae878eadfb64736f6c634300081c0033","linkReferences":{}},"methodIdentifiers":{"addressToUsername(address)":"e07a0baa","getAddress(string)":"bf40fac1","getFeeBalance()":"d4c30ceb","getUsername(address)":"ce43c032","isUsernameAvailable(string)":"f69c6dec","isValidUsername(string)":"3b032005","owner()":"8da5cb5b","premiumFee()":"209c9523","premiumUsernames(string)":"c45548fc","registerPremiumUsername(string)":"23bba240","registerUsername(string)":"36a94134","registerUsernameForAddress(string,address,address)":"7207dd09","registrationFee()":"14c44e09","renounceOwnership()":"715018a6","setPremiumFee(uint256)":"e045ae32","setRegistrationFee(uint256)":"c320c727","transferOwnership(address)":"f2fde38b","transferUsername(address)":"344b15fb","updateUsername(string)":"c96cea70","usdcToken()":"11eac855","usernameToAddress(string)":"f825f143","withdrawFees(address)":"164e68de"},"id":3}