{"abi":[{"type":"constructor","inputs":[{"name":"_usernameRegistry","type":"address","internalType":"address"},{"name":"_feeRecipient","type":"address","internalType":"address"},{"name":"_initialFeeBps","type":"uint256","internalType":"uint256"},{"name":"_enableNativeEth","type":"bool","internalType":"bool"}],"stateMutability":"nonpayable"},{"type":"fallback","stateMutability":"payable"},{"type":"receive","stateMutability":"payable"},{"type":"function","name":"BASIS_POINTS","inputs":[],"outputs":[{"name":"","type":"uint256","internalType":"uint256"}],"stateMutability":"view"},{"type":"function","name":"MAX_FEE_BPS","inputs":[],"outputs":[{"name":"","type":"uint256","internalType":"uint256"}],"stateMutability":"view"},{"type":"function","name":"NATIVE_ETH","inputs":[],"outputs":[{"name":"","type":"address","internalType":"address"}],"stateMutability":"view"},{"type":"function","name":"addSupportedToken","inputs":[{"name":"token","type":"address","internalType":"address"}],"outputs":[],"stateMutability":"nonpayable"},{"type":"function","name":"calculateEthFee","inputs":[{"name":"amount","type":"uint256","internalType":"uint256"}],"outputs":[{"name":"","type":"uint256","internalType":"uint256"}],"stateMutability":"view"},{"type":"function","name":"calculateFee","inputs":[{"name":"token","type":"address","internalType":"address"},{"name":"amount","type":"uint256","internalType":"uint256"}],"outputs":[{"name":"","type":"uint256","internalType":"uint256"}],"stateMutability":"view"},{"type":"function","name":"feeBps","inputs":[],"outputs":[{"name":"","type":"uint256","internalType":"uint256"}],"stateMutability":"view"},{"type":"function","name":"feeRecipient","inputs":[],"outputs":[{"name":"","type":"address","internalType":"address"}],"stateMutability":"view"},{"type":"function","name":"getEffectiveFeeBps","inputs":[{"name":"token","type":"address","internalType":"address"}],"outputs":[{"name":"","type":"uint256","internalType":"uint256"}],"stateMutability":"view"},{"type":"function","name":"getSupportedTokens","inputs":[],"outputs":[{"name":"","type":"address[]","internalType":"address[]"}],"stateMutability":"view"},{"type":"function","name":"nativeEthEnabled","inputs":[],"outputs":[{"name":"","type":"bool","internalType":"bool"}],"stateMutability":"view"},{"type":"function","name":"owner","inputs":[],"outputs":[{"name":"","type":"address","internalType":"address"}],"stateMutability":"view"},{"type":"function","name":"pause","inputs":[],"outputs":[],"stateMutability":"nonpayable"},{"type":"function","name":"paused","inputs":[],"outputs":[{"name":"","type":"bool","internalType":"bool"}],"stateMutability":"view"},{"type":"function","name":"removeSupportedToken","inputs":[{"name":"token","type":"address","internalType":"address"}],"outputs":[],"stateMutability":"nonpayable"},{"type":"function","name":"renounceOwnership","inputs":[],"outputs":[],"stateMutability":"nonpayable"},{"type":"function","name":"sendEthPayment","inputs":[{"name":"toUsername","type":"string","internalType":"string"}],"outputs":[],"stateMutability":"payable"},{"type":"function","name":"sendEthPaymentToAddress","inputs":[{"name":"to","type":"address","internalType":"address"}],"outputs":[],"stateMutability":"payable"},{"type":"function","name":"sendPayment","inputs":[{"name":"toUsername","type":"string","internalType":"string"},{"name":"token","type":"address","internalType":"address"},{"name":"amount","type":"uint256","internalType":"uint256"}],"outputs":[],"stateMutability":"nonpayable"},{"type":"function","name":"sendPaymentToAddress","inputs":[{"name":"to","type":"address","internalType":"address"},{"name":"token","type":"address","internalType":"address"},{"name":"amount","type":"uint256","internalType":"uint256"}],"outputs":[],"stateMutability":"nonpayable"},{"type":"function","name":"setFeeBps","inputs":[{"name":"newFeeBps","type":"uint256","internalType":"uint256"}],"outputs":[],"stateMutability":"nonpayable"},{"type":"function","name":"setFeeRecipient","inputs":[{"name":"newRecipient","type":"address","internalType":"address"}],"outputs":[],"stateMutability":"nonpayable"},{"type":"function","name":"setNativeEthEnabled","inputs":[{"name":"enabled","type":"bool","internalType":"bool"}],"outputs":[],"stateMutability":"nonpayable"},{"type":"function","name":"setTokenFeeBps","inputs":[{"name":"token","type":"address","internalType":"address"},{"name":"newFeeBps","type":"uint256","internalType":"uint256"}],"outputs":[],"stateMutability":"nonpayable"},{"type":"function","name":"supportedTokenList","inputs":[{"name":"","type":"uint256","internalType":"uint256"}],"outputs":[{"name":"","type":"address","internalType":"address"}],"stateMutability":"view"},{"type":"function","name":"supportedTokens","inputs":[{"name":"","type":"address","internalType":"address"}],"outputs":[{"name":"","type":"bool","internalType":"bool"}],"stateMutability":"view"},{"type":"function","name":"tokenFeeBps","inputs":[{"name":"","type":"address","internalType":"address"}],"outputs":[{"name":"","type":"uint256","internalType":"uint256"}],"stateMutability":"view"},{"type":"function","name":"transferOwnership","inputs":[{"name":"newOwner","type":"address","internalType":"address"}],"outputs":[],"stateMutability":"nonpayable"},{"type":"function","name":"unpause","inputs":[],"outputs":[],"stateMutability":"nonpayable"},{"type":"function","name":"usernameRegistry","inputs":[],"outputs":[{"name":"","type":"address","internalType":"contract UsernameRegistry"}],"stateMutability":"view"},{"type":"event","name":"FeeRecipientUpdated","inputs":[{"name":"oldRecipient","type":"address","indexed":true,"internalType":"address"},{"name":"newRecipient","type":"address","indexed":true,"internalType":"address"}],"anonymous":false},{"type":"event","name":"FeeUpdated","inputs":[{"name":"oldFeeBps","type":"uint256","indexed":false,"internalType":"uint256"},{"name":"newFeeBps","type":"uint256","indexed":false,"internalType":"uint256"}],"anonymous":false},{"type":"event","name":"OwnershipTransferred","inputs":[{"name":"previousOwner","type":"address","indexed":true,"internalType":"address"},{"name":"newOwner","type":"address","indexed":true,"internalType":"address"}],"anonymous":false},{"type":"event","name":"Paused","inputs":[{"name":"account","type":"address","indexed":false,"internalType":"address"}],"anonymous":false},{"type":"event","name":"PaymentSent","inputs":[{"name":"from","type":"address","indexed":true,"internalType":"address"},{"name":"to","type":"address","indexed":true,"internalType":"address"},{"name":"token","type":"address","indexed":true,"internalType":"address"},{"name":"amount","type":"uint256","indexed":false,"internalType":"uint256"},{"name":"fee","type":"uint256","indexed":false,"internalType":"uint256"},{"name":"fromUsername","type":"string","indexed":false,"internalType":"string"},{"name":"toUsername","type":"string","indexed":false,"internalType":"string"}],"anonymous":false},{"type":"event","name":"TokenAdded","inputs":[{"name":"token","type":"address","indexed":true,"internalType":"address"}],"anonymous":false},{"type":"event","name":"TokenFeeUpdated","inputs":[{"name":"token","type":"address","indexed":true,"internalType":"address"},{"name":"oldFeeBps","type":"uint256","indexed":false,"internalType":"uint256"},{"name":"newFeeBps","type":"uint256","indexed":false,"internalType":"uint256"}],"anonymous":false},{"type":"event","name":"TokenRemoved","inputs":[{"name":"token","type":"address","indexed":true,"internalType":"address"}],"anonymous":false},{"type":"event","name":"Unpaused","inputs":[{"name":"account","type":"address","indexed":false,"internalType":"address"}],"anonymous":false},{"type":"error","name":"EnforcedPause","inputs":[]},{"type":"error","name":"ExpectedPause","inputs":[]},{"type":"error","name":"OwnableInvalidOwner","inputs":[{"name":"owner","type":"address","internalType":"address"}]},{"type":"error","name":"OwnableUnauthorizedAccount","inputs":[{"name":"account","type":"address","internalType":"address"}]},{"type":"error","name":"ReentrancyGuardReentrantCall","inputs":[]},{"type":"error","name":"SafeERC20FailedOperation","inputs":[{"name":"token","type":"address","internalType":"address"}]}],"bytecode":{"object":"0x60a060405234801561000f575f5ffd5b50604051611f7f380380611f7f83398101604081905261002e9161023b565b338061005457604051631e4fbdf760e01b81525f60048201526024015b60405180910390fd5b61005d816101d1565b50600180556001600160a01b0384166100ab5760405162461bcd60e51b815260206004820152601060248201526f496e76616c696420726567697374727960801b604482015260640161004b565b6001600160a01b0383166101015760405162461bcd60e51b815260206004820152601560248201527f496e76616c69642066656520726563697069656e740000000000000000000000604482015260640161004b565b60c88211156101525760405162461bcd60e51b815260206004820152601460248201527f496e697469616c2066656520746f6f2068696768000000000000000000000000604482015260640161004b565b6001600160a01b03848116608052600880546001600160a01b03191691851691909117905560068290556005805460ff191682158015919091179091556101c8575f805260036020527f3617319a054d772f909f7c479a2cebe5066e836a939412e32403c99029b92eff805460ff191660011790555b5050505061028b565b5f80546001600160a01b038381166001600160a01b0319831681178455604051919092169283917f8be0079c531659141344cd1fd0a4f28419497f9722a3daafe3b4186f6b6457e09190a35050565b80516001600160a01b0381168114610236575f5ffd5b919050565b5f5f5f5f6080858703121561024e575f5ffd5b61025785610220565b935061026560208601610220565b92506040850151915060608501518015158114610280575f5ffd5b939692955090935050565b608051611cb26102cd5f395f81816104e7015281816106a90152818161084601528181610a2e01528181610f720152818161124c01526113bf0152611cb25ff3fe6080604052600436106101d0575f3560e01c806372c27b62116100f6578063c1336b6811610094578063d55be8c611610063578063d55be8c614610549578063e1f1c4a71461055d578063e74b981b14610572578063f2fde38b14610591576101d7565b8063c1336b68146104b7578063c57f6c38146104d6578063d2fc2ed914610509578063d3c7c2c714610528576101d7565b80638456cb59116100d05780638456cb591461044f5780638b28ab1e146104635780638da5cb5b146104825780639355e32e1461049e576101d7565b806372c27b62146103e6578063763191901461040557806379f6351b14610424576101d7565b80633f4ba83a1161016e5780635c975abb1161013d5780635c975abb1461036257806368c4ac26146103855780636d69fcaf146103b3578063715018a6146103d2576101d7565b80633f4ba83a146102fd578063417a55471461031157806346904840146103305780634b0e0a7c1461034f576101d7565b806324a9d853116101aa57806324a9d853146102975780632aad917c146102ac5780632b60c822146102bf57806332137d30146102de576101d7565b8063011e11671461021957806308c9c2c21461024957806311587cf71461026a576101d7565b366101d757005b60405162461bcd60e51b8152602060048201526012602482015271119d5b98dd1a5bdb881b9bdd08199bdd5b9960721b60448201526064015b60405180910390fd5b348015610224575f5ffd5b5061022c5f81565b6040516001600160a01b0390911681526020015b60405180910390f35b348015610254575f5ffd5b50610268610263366004611809565b6105b0565b005b348015610275575f5ffd5b50610289610284366004611847565b610734565b604051908152602001610240565b3480156102a2575f5ffd5b5061028960065481565b6102686102ba366004611847565b610762565b3480156102ca575f5ffd5b5061022c6102d9366004611869565b6108ce565b3480156102e9575f5ffd5b506102896102f8366004611869565b6108f6565b348015610308575f5ffd5b50610268610907565b34801561031c575f5ffd5b5061026861032b366004611880565b610919565b34801561033b575f5ffd5b5060085461022c906001600160a01b031681565b61026861035d36600461195d565b6109c4565b34801561036d575f5ffd5b5060025460ff165b6040519015158152602001610240565b348015610390575f5ffd5b5061037561039f366004611847565b60036020525f908152604090205460ff1681565b3480156103be575f5ffd5b506102686103cd366004611847565b610b23565b3480156103dd575f5ffd5b50610268610c60565b3480156103f1575f5ffd5b50610268610400366004611869565b610c71565b348015610410575f5ffd5b5061026861041f366004611847565b610cfe565b34801561042f575f5ffd5b5061028961043e366004611847565b60076020525f908152604090205481565b34801561045a575f5ffd5b50610268610da5565b34801561046e575f5ffd5b5061028961047d36600461198f565b610db5565b34801561048d575f5ffd5b505f546001600160a01b031661022c565b3480156104a9575f5ffd5b506005546103759060ff1681565b3480156104c2575f5ffd5b506102686104d136600461198f565b610de1565b3480156104e1575f5ffd5b5061022c7f000000000000000000000000000000000000000000000000000000000000000081565b348015610514575f5ffd5b506102686105233660046119b9565b610ef3565b348015610533575f5ffd5b5061053c611068565b60405161024091906119fe565b348015610554575f5ffd5b5061028960c881565b348015610568575f5ffd5b5061028961271081565b34801561057d575f5ffd5b5061026861058c366004611847565b6110c8565b34801561059c575f5ffd5b506102686105ab366004611847565b61116f565b6105b86111a9565b6105c06111d3565b6001600160a01b0382165f9081526003602052604090205460ff166105f75760405162461bcd60e51b815260040161021090611a49565b5f81116106165760405162461bcd60e51b815260040161021090611a76565b6001600160a01b0383166106605760405162461bcd60e51b8152602060048201526011602482015270125b9d985b1a59081c9958da5c1a595b9d607a1b6044820152606401610210565b336001600160a01b038416036106885760405162461bcd60e51b815260040161021090611aad565b604051636721e01960e11b81526001600160a01b0384811660048301525f917f00000000000000000000000000000000000000000000000000000000000000009091169063ce43c032906024015f60405180830381865afa1580156106ef573d5f5f3e3d5ffd5b505050506040513d5f823e601f3d908101601f191682016040526107169190810190611ae4565b905061072533828686866111f7565b5061072f60018055565b505050565b6001600160a01b0381165f9081526007602052604081205480156107585792915050565b5050600654919050565b61076a6111a9565b6107726111d3565b60055460ff166107945760405162461bcd60e51b815260040161021090611b59565b5f34116107b35760405162461bcd60e51b815260040161021090611a76565b6001600160a01b0381166107fd5760405162461bcd60e51b8152602060048201526011602482015270125b9d985b1a59081c9958da5c1a595b9d607a1b6044820152606401610210565b336001600160a01b038216036108255760405162461bcd60e51b815260040161021090611aad565b604051636721e01960e11b81526001600160a01b0382811660048301525f917f00000000000000000000000000000000000000000000000000000000000000009091169063ce43c032906024015f60405180830381865afa15801561088c573d5f5f3e3d5ffd5b505050506040513d5f823e601f3d908101601f191682016040526108b39190810190611ae4565b90506108c13382843461136a565b506108cb60018055565b50565b600481815481106108dd575f80fd5b5f918252602090912001546001600160a01b0316905081565b5f6109015f83610db5565b92915050565b61090f6115be565b6109176115ea565b565b6109216115be565b6005805460ff19908116831580159182179093555f805260036020527f3617319a054d772f909f7c479a2cebe5066e836a939412e32403c99029b92eff8054909216179055610997576040515f907f784c8f4dbf0ffedd6e72c76501c545a70f8b203b30a26ce542bf92ba87c248a4908290a250565b6040515f907f4c910b69fe65a61f7531b9c5042b2329ca7179c77290aa7e2eb3afa3c8511fd3908290a250565b6109cc6111a9565b6109d46111d3565b60055460ff166109f65760405162461bcd60e51b815260040161021090611b59565b5f3411610a155760405162461bcd60e51b815260040161021090611a76565b60405163bf40fac160e01b81525f906001600160a01b037f0000000000000000000000000000000000000000000000000000000000000000169063bf40fac190610a63908590600401611bb7565b602060405180830381865afa158015610a7e573d5f5f3e3d5ffd5b505050506040513d601f19601f82011682018060405250810190610aa29190611bc9565b90506001600160a01b038116610aef5760405162461bcd60e51b8152602060048201526012602482015271155cd95c9b985b59481b9bdd08199bdd5b9960721b6044820152606401610210565b336001600160a01b03821603610b175760405162461bcd60e51b815260040161021090611aad565b6108c13383833461136a565b610b2b6115be565b6001600160a01b038116610b795760405162461bcd60e51b8152602060048201526015602482015274496e76616c696420746f6b656e206164647265737360581b6044820152606401610210565b6001600160a01b0381165f9081526003602052604090205460ff1615610bd55760405162461bcd60e51b8152602060048201526011602482015270105b1c9958591e481cdd5c1c1bdc9d1959607a1b6044820152606401610210565b6001600160a01b0381165f81815260036020526040808220805460ff1916600190811790915560048054918201815583527f8a35acfbc15ff81a39ae7d344fd709f28e8600b4aa8c65c6b64bfe7fe36bd19b0180546001600160a01b03191684179055517f784c8f4dbf0ffedd6e72c76501c545a70f8b203b30a26ce542bf92ba87c248a49190a250565b610c686115be565b6109175f61163c565b610c796115be565b60c8811115610cb95760405162461bcd60e51b815260206004820152600c60248201526b08ccaca40e8dede40d0d2ced60a31b6044820152606401610210565b600680549082905560408051828152602081018490527f528d9479e9f9889a87a3c30c7f7ba537e5e59c4c85a37733b16e57c62df61302910160405180910390a15050565b610d066115be565b6001600160a01b0381165f9081526003602052604090205460ff16610d5d5760405162461bcd60e51b815260206004820152600d60248201526c139bdd081cdd5c1c1bdc9d1959609a1b6044820152606401610210565b6001600160a01b0381165f81815260036020526040808220805460ff19169055517f4c910b69fe65a61f7531b9c5042b2329ca7179c77290aa7e2eb3afa3c8511fd39190a250565b610dad6115be565b61091761168b565b5f5f610dc084610734565b9050612710610dcf8285611bf8565b610dd99190611c0f565b949350505050565b610de96115be565b6001600160a01b038216610e1e5760055460ff16610e195760405162461bcd60e51b815260040161021090611b59565b610e55565b6001600160a01b0382165f9081526003602052604090205460ff16610e555760405162461bcd60e51b815260040161021090611a49565b60c8811115610e955760405162461bcd60e51b815260206004820152600c60248201526b08ccaca40e8dede40d0d2ced60a31b6044820152606401610210565b6001600160a01b0382165f81815260076020908152604091829020805490859055825181815291820185905292917f5fe83da06836532aa42f928fe690751e055c28dafb29fd9081edbb43c931e8cd910160405180910390a2505050565b610efb6111a9565b610f036111d3565b6001600160a01b0382165f9081526003602052604090205460ff16610f3a5760405162461bcd60e51b815260040161021090611a49565b5f8111610f595760405162461bcd60e51b815260040161021090611a76565b60405163bf40fac160e01b81525f906001600160a01b037f0000000000000000000000000000000000000000000000000000000000000000169063bf40fac190610fa7908790600401611bb7565b602060405180830381865afa158015610fc2573d5f5f3e3d5ffd5b505050506040513d601f19601f82011682018060405250810190610fe69190611bc9565b90506001600160a01b0381166110335760405162461bcd60e51b8152602060048201526012602482015271155cd95c9b985b59481b9bdd08199bdd5b9960721b6044820152606401610210565b336001600160a01b0382160361105b5760405162461bcd60e51b815260040161021090611aad565b61072533858386866111f7565b606060048054806020026020016040519081016040528092919081815260200182805480156110be57602002820191905f5260205f20905b81546001600160a01b031681526001909101906020018083116110a0575b5050505050905090565b6110d06115be565b6001600160a01b03811661111e5760405162461bcd60e51b8152602060048201526015602482015274125b9d985b1a5908199959481c9958da5c1a595b9d605a1b6044820152606401610210565b600880546001600160a01b038381166001600160a01b0319831681179093556040519116919082907faaebcf1bfa00580e41d966056b48521fa9f202645c86d4ddf28113e617c1b1d3905f90a35050565b6111776115be565b6001600160a01b0381166111a057604051631e4fbdf760e01b81525f6004820152602401610210565b6108cb8161163c565b6002600154036111cc57604051633ee5aeb560e01b815260040160405180910390fd5b6002600155565b60025460ff16156109175760405163d93c066560e01b815260040160405180910390fd5b5f61120183610734565b90505f6127106112118385611bf8565b61121b9190611c0f565b90505f6112288285611c2e565b604051636721e01960e11b81526001600160a01b038a811660048301529192505f917f0000000000000000000000000000000000000000000000000000000000000000169063ce43c032906024015f60405180830381865afa158015611290573d5f5f3e3d5ffd5b505050506040513d5f823e601f3d908101601f191682016040526112b79190810190611ae4565b9050876112cf6001600160a01b0388168b30896116c8565b6112e36001600160a01b0388168985611735565b831561130357600854611303906001600160a01b03898116911686611735565b866001600160a01b0316886001600160a01b03168b6001600160a01b03167f8214bd12bcfbfe42007b8a7e0e1b27bb26f2334b23a4af027991650d54347203898887876040516113569493929190611c41565b60405180910390a450505050505050505050565b5f6113745f610734565b90505f6127106113848385611bf8565b61138e9190611c0f565b90505f61139b8285611c2e565b604051636721e01960e11b81526001600160a01b0389811660048301529192505f917f0000000000000000000000000000000000000000000000000000000000000000169063ce43c032906024015f60405180830381865afa158015611403573d5f5f3e3d5ffd5b505050506040513d5f823e601f3d908101601f1916820160405261142a9190810190611ae4565b60405190915087905f906001600160a01b0389169085908381818185875af1925050503d805f8114611477576040519150601f19603f3d011682016040523d82523d5f602084013e61147c565b606091505b50509050806114c35760405162461bcd60e51b8152602060048201526013602482015272115512081d1c985b9cd9995c8819985a5b1959606a1b6044820152606401610210565b841561156b576008546040516001600160a01b039091169086905f81818185875af1925050503d805f8114611513576040519150601f19603f3d011682016040523d82523d5f602084013e611518565b606091505b5050809150508061156b5760405162461bcd60e51b815260206004820152601760248201527f45544820666565207472616e73666572206661696c65640000000000000000006044820152606401610210565b5f6001600160a01b0316886001600160a01b03168b6001600160a01b03167f8214bd12bcfbfe42007b8a7e0e1b27bb26f2334b23a4af027991650d543472038a8988886040516113569493929190611c41565b5f546001600160a01b031633146109175760405163118cdaa760e01b8152336004820152602401610210565b6115f2611766565b6002805460ff191690557f5db9ee0a495bf2e6ff9c91a7834c1ba4fdd244a5e8aa4e537bd38aeae4b073aa335b6040516001600160a01b03909116815260200160405180910390a1565b5f80546001600160a01b038381166001600160a01b0319831681178455604051919092169283917f8be0079c531659141344cd1fd0a4f28419497f9722a3daafe3b4186f6b6457e09190a35050565b6116936111d3565b6002805460ff191660011790557f62e78cea01bee320cd4e420270b5ea74000d11b0c9f74754ebdbfc544b05a25861161f3390565b6040516001600160a01b03848116602483015283811660448301526064820183905261172f9186918216906323b872dd906084015b604051602081830303815290604052915060e01b6020820180516001600160e01b038381831617835250505050611789565b50505050565b6040516001600160a01b0383811660248301526044820183905261072f91859182169063a9059cbb906064016116fd565b60025460ff1661091757604051638dfc202b60e01b815260040160405180910390fd5b5f5f60205f8451602086015f885af1806117a8576040513d5f823e3d81fd5b50505f513d915081156117bf5780600114156117cc565b6001600160a01b0384163b155b1561172f57604051635274afe760e01b81526001600160a01b0385166004820152602401610210565b6001600160a01b03811681146108cb575f5ffd5b5f5f5f6060848603121561181b575f5ffd5b8335611826816117f5565b92506020840135611836816117f5565b929592945050506040919091013590565b5f60208284031215611857575f5ffd5b8135611862816117f5565b9392505050565b5f60208284031215611879575f5ffd5b5035919050565b5f60208284031215611890575f5ffd5b81358015158114611862575f5ffd5b634e487b7160e01b5f52604160045260245ffd5b604051601f8201601f1916810167ffffffffffffffff811182821017156118dc576118dc61189f565b604052919050565b5f67ffffffffffffffff8211156118fd576118fd61189f565b50601f01601f191660200190565b5f82601f83011261191a575f5ffd5b813561192d611928826118e4565b6118b3565b818152846020838601011115611941575f5ffd5b816020850160208301375f918101602001919091529392505050565b5f6020828403121561196d575f5ffd5b813567ffffffffffffffff811115611983575f5ffd5b610dd98482850161190b565b5f5f604083850312156119a0575f5ffd5b82356119ab816117f5565b946020939093013593505050565b5f5f5f606084860312156119cb575f5ffd5b833567ffffffffffffffff8111156119e1575f5ffd5b6119ed8682870161190b565b9350506020840135611836816117f5565b602080825282518282018190525f918401906040840190835b81811015611a3e5783516001600160a01b0316835260209384019390920191600101611a17565b509095945050505050565b602080825260139082015272151bdad95b881b9bdd081cdd5c1c1bdc9d1959606a1b604082015260600190565b6020808252601d908201527f416d6f756e74206d7573742062652067726561746572207468616e2030000000604082015260600190565b60208082526017908201527f43616e6e6f742073656e6420746f20796f757273656c66000000000000000000604082015260600190565b5f60208284031215611af4575f5ffd5b815167ffffffffffffffff811115611b0a575f5ffd5b8201601f81018413611b1a575f5ffd5b8051611b28611928826118e4565b818152856020838501011115611b3c575f5ffd5b8160208401602083015e5f91810160200191909152949350505050565b60208082526016908201527513985d1a5d9948115512081b9bdd08195b98589b195960521b604082015260600190565b5f81518084528060208401602086015e5f602082860101526020601f19601f83011685010191505092915050565b602081525f6118626020830184611b89565b5f60208284031215611bd9575f5ffd5b8151611862816117f5565b634e487b7160e01b5f52601160045260245ffd5b808202811582820484141761090157610901611be4565b5f82611c2957634e487b7160e01b5f52601260045260245ffd5b500490565b8181038181111561090157610901611be4565b848152836020820152608060408201525f611c5f6080830185611b89565b8281036060840152611c718185611b89565b97965050505050505056fea26469706673582212200d2374007a65567cdcd823b8b2b62fa6a49b04640bd979201308f1fbc6cc473f64736f6c634300081c0033","linkReferences":{}},"methodIdentifiers":{"BASIS_POINTS()":"e1f1c4a7","MAX_FEE_BPS()":"d55be8c6","NATIVE_ETH()":"011e1167","addSupportedToken(address)":"6d69fcaf","calculateEthFee(uint256)":"32137d30","calculateFee(address,uint256)":"8b28ab1e","feeBps()":"24a9d853","feeRecipient()":"46904840","getEffectiveFeeBps(address)":"11587cf7","getSupportedTokens()":"d3c7c2c7","nativeEthEnabled()":"9355e32e","owner()":"8da5cb5b","pause()":"8456cb59","paused()":"5c975abb","removeSupportedToken(address)":"76319190","renounceOwnership()":"715018a6","sendEthPayment(string)":"4b0e0a7c","sendEthPaymentToAddress(address)":"2aad917c","sendPayment(string,address,uint256)":"d2fc2ed9","sendPaymentToAddress(address,address,uint256)":"08c9c2c2","setFeeBps(uint256)":"72c27b62","setFeeRecipient(address)":"e74b981b","setNativeEthEnabled(bool)":"417a5547","setTokenFeeBps(address,uint256)":"c1336b68","supportedTokenList(uint256)":"2b60c822","supportedTokens(address)":"68c4ac26","tokenFeeBps(address)":"79f6351b","transferOwnership(address)":"f2fde38b","unpause()":"3f4ba83a","usernameRegistry()":"c57f6c38"},"id":1}