{"contracts/UsernameRegistry.sol":{"UsernameRegistry":{"abi":[{"type":"constructor","inputs":[{"name":"_usdcToken","type":"address","internalType":"address"}],"stateMutability":"nonpayable"},{"type":"function","name":"addressToUsername","inputs":[{"name":"","type":"address","internalType":"address"}],"outputs":[{"name":"","type":"string","internalType":"string"}],"stateMutability":"view"},{"type":"function","name":"getAddress","inputs":[{"name":"username","type":"string","internalType":"string"}],"outputs":[{"name":"","type":"address","internalType":"address"}],"stateMutability":"view"},{"type":"function","name":"getFeeBalance","inputs":[],"outputs":[{"name":"","type":"uint256","internalType":"uint256"}],"stateMutability":"view"},{"type":"function","name":"getUsername","inputs":[{"name":"userAddress","type":"address","internalType":"address"}],"outputs":[{"name":"","type":"string","internalType":"string"}],"stateMutability":"view"},{"type":"function","name":"isUsernameAvailable","inputs":[{"name":"username","type":"string","internalType":"string"}],"outputs":[{"name":"","type":"bool","internalType":"bool"}],"stateMutability":"view"},{"type":"function","name":"isValidUsername","inputs":[{"name":"username","type":"string","internalType":"string"}],"outputs":[{"name":"","type":"bool","internalType":"bool"}],"stateMutability":"pure"},{"type":"function","name":"owner","inputs":[],"outputs":[{"name":"","type":"address","internalType":"address"}],"stateMutability":"view"},{"type":"function","name":"premiumFee","inputs":[],"outputs":[{"name":"","type":"uint256","internalType":"uint256"}],"stateMutability":"view"},{"type":"function","name":"premiumUsernames","inputs":[{"name":"","type":"string","internalType":"string"}],"outputs":[{"name":"","type":"bool","internalType":"bool"}],"stateMutability":"view"},{"type":"function","name":"registerPremiumUsername","inputs":[{"name":"username","type":"string","internalType":"string"}],"outputs":[],"stateMutability":"nonpayable"},{"type":"function","name":"registerUsername","inputs":[{"name":"username","type":"string","internalType":"string"}],"outputs":[],"stateMutability":"nonpayable"},{"type":"function","name":"registerUsernameForAddress","inputs":[{"name":"username","type":"string","internalType":"string"},{"name":"walletAddress","type":"address","internalType":"address"},{"name":"feePayer","type":"address","internalType":"address"}],"outputs":[],"stateMutability":"nonpayable"},{"type":"function","name":"registrationFee","inputs":[],"outputs":[{"name":"","type":"uint256","internalType":"uint256"}],"stateMutability":"view"},{"type":"function","name":"renounceOwnership","inputs":[],"outputs":[],"stateMutability":"nonpayable"},{"type":"function","name":"setPremiumFee","inputs":[{"name":"newFee","type":"uint256","internalType":"uint256"}],"outputs":[],"stateMutability":"nonpayable"},{"type":"function","name":"setRegistrationFee","inputs":[{"name":"newFee","type":"uint256","internalType":"uint256"}],"outputs":[],"stateMutability":"nonpayable"},{"type":"function","name":"transferOwnership","inputs":[{"name":"newOwner","type":"address","internalType":"address"}],"outputs":[],"stateMutability":"nonpayable"},{"type":"function","name":"updateUsername","inputs":[{"name":"newUsername","type":"string","internalType":"string"}],"outputs":[],"stateMutability":"nonpayable"},{"type":"function","name":"usdcToken","inputs":[],"outputs":[{"name":"","type":"address","internalType":"contract IERC20"}],"stateMutability":"view"},{"type":"function","name":"usernameToAddress","inputs":[{"name":"","type":"string","internalType":"string"}],"outputs":[{"name":"","type":"address","internalType":"address"}],"stateMutability":"view"},{"type":"function","name":"withdrawFees","inputs":[],"outputs":[],"stateMutability":"nonpayable"},{"type":"event","name":"OwnershipTransferred","inputs":[{"name":"previousOwner","type":"address","indexed":true,"internalType":"address"},{"name":"newOwner","type":"address","indexed":true,"internalType":"address"}],"anonymous":false},{"type":"event","name":"PremiumFeeUpdated","inputs":[{"name":"oldFee","type":"uint256","indexed":false,"internalType":"uint256"},{"name":"newFee","type":"uint256","indexed":false,"internalType":"uint256"}],"anonymous":false},{"type":"event","name":"PremiumUsernameRegistered","inputs":[{"name":"user","type":"address","indexed":true,"internalType":"address"},{"name":"username","type":"string","indexed":false,"internalType":"string"}],"anonymous":false},{"type":"event","name":"RegistrationFeeUpdated","inputs":[{"name":"oldFee","type":"uint256","indexed":false,"internalType":"uint256"},{"name":"newFee","type":"uint256","indexed":false,"internalType":"uint256"}],"anonymous":false},{"type":"event","name":"UsernameRegistered","inputs":[{"name":"user","type":"address","indexed":true,"internalType":"address"},{"name":"username","type":"string","indexed":false,"internalType":"string"},{"name":"isPremium","type":"bool","indexed":false,"internalType":"bool"}],"anonymous":false},{"type":"event","name":"UsernameUpdated","inputs":[{"name":"user","type":"address","indexed":true,"internalType":"address"},{"name":"oldUsername","type":"string","indexed":false,"internalType":"string"},{"name":"newUsername","type":"string","indexed":false,"internalType":"string"}],"anonymous":false},{"type":"error","name":"OwnableInvalidOwner","inputs":[{"name":"owner","type":"address","internalType":"address"}]},{"type":"error","name":"OwnableUnauthorizedAccount","inputs":[{"name":"account","type":"address","internalType":"address"}]},{"type":"error","name":"ReentrancyGuardReentrantCall","inputs":[]},{"type":"error","name":"SafeERC20FailedOperation","inputs":[{"name":"token","type":"address","internalType":"address"}]}],"userdoc":{},"devdoc":{},"evm":{"bytecode":{"object":"6080604052620f42406006556298968060075534801561001d575f5ffd5b5060405161191038038061191083398101604081905261003c9161013a565b338061006257604051631e4fbdf760e01b81525f60048201526024015b60405180910390fd5b61006b816100eb565b50600180556001600160a01b0381166100c65760405162461bcd60e51b815260206004820152601460248201527f496e76616c6964205553444320616464726573730000000000000000000000006044820152606401610059565b600280546001600160a01b0319166001600160a01b0392909216919091179055610167565b5f80546001600160a01b038381166001600160a01b0319831681178455604051919092169283917f8be0079c531659141344cd1fd0a4f28419497f9722a3daafe3b4186f6b6457e09190a35050565b5f6020828403121561014a575f5ffd5b81516001600160a01b0381168114610160575f5ffd5b9392505050565b61179c806101745f395ff3fe608060405234801561000f575f5ffd5b5060043610610132575f3560e01c8063bf40fac1116100b4578063d4c30ceb11610079578063d4c30ceb1461028b578063e045ae3214610293578063e07a0baa146102a6578063f2fde38b146102b9578063f69c6dec146102cc578063f825f143146102df575f5ffd5b8063bf40fac114610204578063c320c72714610217578063c45548fc1461022a578063c96cea7014610258578063ce43c0321461026b575f5ffd5b80633b032005116100fa5780633b032005146101ae578063476343ee146101d1578063715018a6146101d95780637207dd09146101e15780638da5cb5b146101f4575f5ffd5b806311eac8551461013657806314c44e0914610166578063209c95231461017d57806323bba2401461018657806336a941341461019b575b5f5ffd5b600254610149906001600160a01b031681565b6040516001600160a01b0390911681526020015b60405180910390f35b61016f60065481565b60405190815260200161015d565b61016f60075481565b610199610194366004611371565b610313565b005b6101996101a9366004611371565b610543565b6101c16101bc366004611371565b6106eb565b604051901515815260200161015d565b6101996107f7565b6101996108d7565b6101996101ef3660046113c6565b6108ea565b5f546001600160a01b0316610149565b610149610212366004611371565b610b47565b610199610225366004611420565b610b77565b6101c1610238366004611371565b805160208183018101805160058252928201919093012091525460ff1681565b610199610266366004611371565b610bc5565b61027e610279366004611437565b610eb9565b60405161015d9190611485565b61016f610f62565b6101996102a1366004611420565b610fd1565b61027e6102b4366004611437565b611017565b6101996102c7366004611437565b6110ae565b6101c16102da366004611371565b6110e8565b6101496102ed366004611371565b80516020818301810180516003825292820191909301209152546001600160a01b031681565b61031b611123565b5f8151116103445760405162461bcd60e51b815260040161033b90611497565b60405180910390fd5b6020815111156103665760405162461bcd60e51b815260040161033b906114ce565b61036f816106eb565b61038b5760405162461bcd60e51b815260040161033b906114f9565b5f6001600160a01b03166003826040516103a59190611530565b908152604051908190036020019020546001600160a01b0316146103db5760405162461bcd60e51b815260040161033b90611546565b335f90815260046020526040902080546103f490611576565b1590506104135760405162461bcd60e51b815260040161033b906115ae565b600754600254610432916001600160a01b03909116903390309061114d565b336003826040516104439190611530565b908152604080516020928190038301902080546001600160a01b0319166001600160a01b039490941693909317909255335f9081526004909152206104888282611630565b50600160058260405161049b9190611530565b908152604051908190036020018120805492151560ff199093169290921790915533907fc36d46ad833e5308d16a724481ce4dfa7eeb5b17e6e3871cb5cfca85ae991799906104eb908490611485565b60405180910390a2336001600160a01b03167f810135d029ee569e57844deaa290c06c21b8fda6ce62e6e07a652c4632d1b71a82600160405161052f9291906116eb565b60405180910390a261054060018055565b50565b61054b611123565b5f81511161056b5760405162461bcd60e51b815260040161033b90611497565b60208151111561058d5760405162461bcd60e51b815260040161033b906114ce565b610596816106eb565b6105b25760405162461bcd60e51b815260040161033b906114f9565b5f6001600160a01b03166003826040516105cc9190611530565b908152604051908190036020019020546001600160a01b0316146106025760405162461bcd60e51b815260040161033b90611546565b335f908152600460205260409020805461061b90611576565b15905061063a5760405162461bcd60e51b815260040161033b906115ae565b600654600254610659916001600160a01b03909116903390309061114d565b3360038260405161066a9190611530565b908152604080516020928190038301902080546001600160a01b0319166001600160a01b039490941693909317909255335f9081526004909152206106af8282611630565b50336001600160a01b03167f810135d029ee569e57844deaa290c06c21b8fda6ce62e6e07a652c4632d1b71a825f60405161052f9291906116eb565b80515f90829082036106ff57505f92915050565b5f5b81518110156107ed575f82828151811061071d5761071d61170e565b01602001516001600160f81b0319169050600360fc1b81108015906107505750603960f81b6001600160f81b0319821611155b1580156107865750604160f81b6001600160f81b03198216108015906107845750602d60f91b6001600160f81b0319821611155b155b80156107bb5750606160f81b6001600160f81b03198216108015906107b95750603d60f91b6001600160f81b0319821611155b155b80156107d55750605f60f81b6001600160f81b0319821614155b156107e457505f949350505050565b50600101610701565b5060019392505050565b6107ff6111ba565b6002546040516370a0823160e01b81523060048201525f916001600160a01b0316906370a0823190602401602060405180830381865afa158015610845573d5f5f3e3d5ffd5b505050506040513d601f19601f820116820180604052508101906108699190611722565b90505f81116108b05760405162461bcd60e51b81526020600482015260136024820152724e6f206665657320746f20776974686472617760681b604482015260640161033b565b6105406108c45f546001600160a01b031690565b6002546001600160a01b031690836111e6565b6108df6111ba565b6108e85f611217565b565b6108f2611123565b5f8351116109125760405162461bcd60e51b815260040161033b90611497565b6020835111156109345760405162461bcd60e51b815260040161033b906114ce565b61093d836106eb565b6109595760405162461bcd60e51b815260040161033b906114f9565b5f6001600160a01b03166003846040516109739190611530565b908152604051908190036020019020546001600160a01b0316146109a95760405162461bcd60e51b815260040161033b90611546565b6001600160a01b0382165f90815260046020526040902080546109cb90611576565b1590506109ea5760405162461bcd60e51b815260040161033b906115ae565b6001600160a01b038216610a395760405162461bcd60e51b8152602060048201526016602482015275496e76616c69642077616c6c6574206164647265737360501b604482015260640161033b565b6001600160a01b038116610a835760405162461bcd60e51b815260206004820152601160248201527024b73b30b634b2103332b2903830bcb2b960791b604482015260640161033b565b600654600254610aa2916001600160a01b03909116908390309061114d565b81600384604051610ab39190611530565b908152604080516020928190038301902080546001600160a01b0319166001600160a01b039485161790559184165f908152600490915220610af58482611630565b50816001600160a01b03167f810135d029ee569e57844deaa290c06c21b8fda6ce62e6e07a652c4632d1b71a845f604051610b319291906116eb565b60405180910390a2610b4260018055565b505050565b5f600382604051610b589190611530565b908152604051908190036020019020546001600160a01b031692915050565b610b7f6111ba565b600680549082905560408051828152602081018490527f50b218c5a101ad05d53ab0a964d01da639ee79525ae4b7802ed714249740a8d591015b60405180910390a15050565b610bcd611123565b335f9081526004602052604081208054610be690611576565b80601f0160208091040260200160405190810160405280929190818152602001828054610c1290611576565b8015610c5d5780601f10610c3457610100808354040283529160200191610c5d565b820191905f5260205f20905b815481529060010190602001808311610c4057829003601f168201915b505050505090505f815111610cac5760405162461bcd60e51b81526020600482015260156024820152744e6f20757365726e616d6520746f2075706461746560581b604482015260640161033b565b600581604051610cbc9190611530565b9081526040519081900360200190205460ff1615610d1c5760405162461bcd60e51b815260206004820152601e60248201527f43616e6e6f7420757064617465207072656d69756d20757365726e616d650000604482015260640161033b565b5f825111610d3c5760405162461bcd60e51b815260040161033b90611497565b602082511115610d5e5760405162461bcd60e51b815260040161033b906114ce565b610d67826106eb565b610d835760405162461bcd60e51b815260040161033b906114f9565b5f6001600160a01b0316600383604051610d9d9190611530565b908152604051908190036020019020546001600160a01b031614610dd35760405162461bcd60e51b815260040161033b90611546565b5f600382604051610de49190611530565b90815260200160405180910390205f6101000a8154816001600160a01b0302191690836001600160a01b0316021790555033600383604051610e269190611530565b908152604080516020928190038301902080546001600160a01b0319166001600160a01b039490941693909317909255335f908152600490915220610e6b8382611630565b50336001600160a01b03167f13428138c872937c879d86da5f1947a7625d28588e4f7f2c44bcb70abbd774738284604051610ea7929190611739565b60405180910390a25061054060018055565b6001600160a01b0381165f908152600460205260409020805460609190610edf90611576565b80601f0160208091040260200160405190810160405280929190818152602001828054610f0b90611576565b8015610f565780601f10610f2d57610100808354040283529160200191610f56565b820191905f5260205f20905b815481529060010190602001808311610f3957829003601f168201915b50505050509050919050565b6002546040516370a0823160e01b81523060048201525f916001600160a01b0316906370a0823190602401602060405180830381865afa158015610fa8573d5f5f3e3d5ffd5b505050506040513d601f19601f82011682018060405250810190610fcc9190611722565b905090565b610fd96111ba565b600780549082905560408051828152602081018490527f530b89ea399e23e81efbf2979ec02ae5af1e52d329d1e6c693489048bf301a879101610bb9565b60046020525f90815260409020805461102f90611576565b80601f016020809104026020016040519081016040528092919081815260200182805461105b90611576565b80156110a65780601f1061107d576101008083540402835291602001916110a6565b820191905f5260205f20905b81548152906001019060200180831161108957829003601f168201915b505050505081565b6110b66111ba565b6001600160a01b0381166110df57604051631e4fbdf760e01b81525f600482015260240161033b565b61054081611217565b5f5f6001600160a01b03166003836040516111039190611530565b908152604051908190036020019020546001600160a01b03161492915050565b60026001540361114657604051633ee5aeb560e01b815260040160405180910390fd5b6002600155565b6040516001600160a01b0384811660248301528381166044830152606482018390526111b49186918216906323b872dd906084015b604051602081830303815290604052915060e01b6020820180516001600160e01b038381831617835250505050611266565b50505050565b5f546001600160a01b031633146108e85760405163118cdaa760e01b815233600482015260240161033b565b6040516001600160a01b03838116602483015260448201839052610b4291859182169063a9059cbb90606401611182565b5f80546001600160a01b038381166001600160a01b0319831681178455604051919092169283917f8be0079c531659141344cd1fd0a4f28419497f9722a3daafe3b4186f6b6457e09190a35050565b5f5f60205f8451602086015f885af180611285576040513d5f823e3d81fd5b50505f513d9150811561129c5780600114156112a9565b6001600160a01b0384163b155b156111b457604051635274afe760e01b81526001600160a01b038516600482015260240161033b565b634e487b7160e01b5f52604160045260245ffd5b5f82601f8301126112f5575f5ffd5b813567ffffffffffffffff81111561130f5761130f6112d2565b604051601f8201601f19908116603f0116810167ffffffffffffffff8111828210171561133e5761133e6112d2565b604052818152838201602001851015611355575f5ffd5b816020850160208301375f918101602001919091529392505050565b5f60208284031215611381575f5ffd5b813567ffffffffffffffff811115611397575f5ffd5b6113a3848285016112e6565b949350505050565b80356001600160a01b03811681146113c1575f5ffd5b919050565b5f5f5f606084860312156113d8575f5ffd5b833567ffffffffffffffff8111156113ee575f5ffd5b6113fa868287016112e6565b935050611409602085016113ab565b9150611417604085016113ab565b90509250925092565b5f60208284031215611430575f5ffd5b5035919050565b5f60208284031215611447575f5ffd5b611450826113ab565b9392505050565b5f81518084528060208401602086015e5f602082860101526020601f19601f83011685010191505092915050565b602081525f6114506020830184611457565b60208082526018908201527f557365726e616d652063616e6e6f7420626520656d7074790000000000000000604082015260600190565b602080825260119082015270557365726e616d6520746f6f206c6f6e6760781b604082015260600190565b60208082526017908201527f496e76616c696420757365726e616d6520666f726d6174000000000000000000604082015260600190565b5f82518060208501845e5f920191825250919050565b6020808252601690820152752ab9b2b93730b6b29030b63932b0b23c903a30b5b2b760511b604082015260600190565b600181811c9082168061158a57607f821691505b6020821081036115a857634e487b7160e01b5f52602260045260245ffd5b50919050565b6020808252601c908201527f4164647265737320616c72656164792068617320757365726e616d6500000000604082015260600190565b601f821115610b4257805f5260205f20601f840160051c8101602085101561160a5750805b601f840160051c820191505b81811015611629575f8155600101611616565b5050505050565b815167ffffffffffffffff81111561164a5761164a6112d2565b61165e816116588454611576565b846115e5565b6020601f821160018114611690575f83156116795750848201515b5f19600385901b1c1916600184901b178455611629565b5f84815260208120601f198516915b828110156116bf578785015182556020948501946001909201910161169f565b50848210156116dc57868401515f19600387901b60f8161c191681555b50505050600190811b01905550565b604081525f6116fd6040830185611457565b905082151560208301529392505050565b634e487b7160e01b5f52603260045260245ffd5b5f60208284031215611732575f5ffd5b5051919050565b604081525f61174b6040830185611457565b828103602084015261175d8185611457565b9594505050505056fea2646970667358221220362600f2512be7ea9f435b2ba3c21689837bce2e065481f185a5561d79344cc964736f6c634300081c0033","linkReferences":{}},"methodIdentifiers":{"addressToUsername(address)":"e07a0baa","getAddress(string)":"bf40fac1","getFeeBalance()":"d4c30ceb","getUsername(address)":"ce43c032","isUsernameAvailable(string)":"f69c6dec","isValidUsername(string)":"3b032005","owner()":"8da5cb5b","premiumFee()":"209c9523","premiumUsernames(string)":"c45548fc","registerPremiumUsername(string)":"23bba240","registerUsername(string)":"36a94134","registerUsernameForAddress(string,address,address)":"7207dd09","registrationFee()":"14c44e09","renounceOwnership()":"715018a6","setPremiumFee(uint256)":"e045ae32","setRegistrationFee(uint256)":"c320c727","transferOwnership(address)":"f2fde38b","updateUsername(string)":"c96cea70","usdcToken()":"11eac855","usernameToAddress(string)":"f825f143","withdrawFees()":"476343ee"}}}}}