{"abi":[{"type":"constructor","inputs":[{"name":"_usdcToken","type":"address","internalType":"address"}],"stateMutability":"nonpayable"},{"type":"function","name":"addressToUsername","inputs":[{"name":"","type":"address","internalType":"address"}],"outputs":[{"name":"","type":"string","internalType":"string"}],"stateMutability":"view"},{"type":"function","name":"getAddress","inputs":[{"name":"username","type":"string","internalType":"string"}],"outputs":[{"name":"","type":"address","internalType":"address"}],"stateMutability":"view"},{"type":"function","name":"getFeeBalance","inputs":[],"outputs":[{"name":"","type":"uint256","internalType":"uint256"}],"stateMutability":"view"},{"type":"function","name":"getUsername","inputs":[{"name":"userAddress","type":"address","internalType":"address"}],"outputs":[{"name":"","type":"string","internalType":"string"}],"stateMutability":"view"},{"type":"function","name":"isUsernameAvailable","inputs":[{"name":"username","type":"string","internalType":"string"}],"outputs":[{"name":"","type":"bool","internalType":"bool"}],"stateMutability":"view"},{"type":"function","name":"isValidUsername","inputs":[{"name":"username","type":"string","internalType":"string"}],"outputs":[{"name":"","type":"bool","internalType":"bool"}],"stateMutability":"pure"},{"type":"function","name":"owner","inputs":[],"outputs":[{"name":"","type":"address","internalType":"address"}],"stateMutability":"view"},{"type":"function","name":"premiumFee","inputs":[],"outputs":[{"name":"","type":"uint256","internalType":"uint256"}],"stateMutability":"view"},{"type":"function","name":"premiumUsernames","inputs":[{"name":"","type":"string","internalType":"string"}],"outputs":[{"name":"","type":"bool","internalType":"bool"}],"stateMutability":"view"},{"type":"function","name":"registerPremiumUsername","inputs":[{"name":"username","type":"string","internalType":"string"}],"outputs":[],"stateMutability":"nonpayable"},{"type":"function","name":"registerUsername","inputs":[{"name":"username","type":"string","internalType":"string"}],"outputs":[],"stateMutability":"nonpayable"},{"type":"function","name":"registerUsernameForAddress","inputs":[{"name":"username","type":"string","internalType":"string"},{"name":"walletAddress","type":"address","internalType":"address"},{"name":"feePayer","type":"address","internalType":"address"}],"outputs":[],"stateMutability":"nonpayable"},{"type":"function","name":"registrationFee","inputs":[],"outputs":[{"name":"","type":"uint256","internalType":"uint256"}],"stateMutability":"view"},{"type":"function","name":"renounceOwnership","inputs":[],"outputs":[],"stateMutability":"nonpayable"},{"type":"function","name":"setPremiumFee","inputs":[{"name":"newFee","type":"uint256","internalType":"uint256"}],"outputs":[],"stateMutability":"nonpayable"},{"type":"function","name":"setRegistrationFee","inputs":[{"name":"newFee","type":"uint256","internalType":"uint256"}],"outputs":[],"stateMutability":"nonpayable"},{"type":"function","name":"transferOwnership","inputs":[{"name":"newOwner","type":"address","internalType":"address"}],"outputs":[],"stateMutability":"nonpayable"},{"type":"function","name":"updateUsername","inputs":[{"name":"newUsername","type":"string","internalType":"string"}],"outputs":[],"stateMutability":"nonpayable"},{"type":"function","name":"usdcToken","inputs":[],"outputs":[{"name":"","type":"address","internalType":"contract IERC20"}],"stateMutability":"view"},{"type":"function","name":"usernameToAddress","inputs":[{"name":"","type":"string","internalType":"string"}],"outputs":[{"name":"","type":"address","internalType":"address"}],"stateMutability":"view"},{"type":"function","name":"withdrawFees","inputs":[],"outputs":[],"stateMutability":"nonpayable"},{"type":"event","name":"OwnershipTransferred","inputs":[{"name":"previousOwner","type":"address","indexed":true,"internalType":"address"},{"name":"newOwner","type":"address","indexed":true,"internalType":"address"}],"anonymous":false},{"type":"event","name":"PremiumFeeUpdated","inputs":[{"name":"oldFee","type":"uint256","indexed":false,"internalType":"uint256"},{"name":"newFee","type":"uint256","indexed":false,"internalType":"uint256"}],"anonymous":false},{"type":"event","name":"PremiumUsernameRegistered","inputs":[{"name":"user","type":"address","indexed":true,"internalType":"address"},{"name":"username","type":"string","indexed":false,"internalType":"string"}],"anonymous":false},{"type":"event","name":"RegistrationFeeUpdated","inputs":[{"name":"oldFee","type":"uint256","indexed":false,"internalType":"uint256"},{"name":"newFee","type":"uint256","indexed":false,"internalType":"uint256"}],"anonymous":false},{"type":"event","name":"UsernameRegistered","inputs":[{"name":"user","type":"address","indexed":true,"internalType":"address"},{"name":"username","type":"string","indexed":false,"internalType":"string"},{"name":"isPremium","type":"bool","indexed":false,"internalType":"bool"}],"anonymous":false},{"type":"event","name":"UsernameUpdated","inputs":[{"name":"user","type":"address","indexed":true,"internalType":"address"},{"name":"oldUsername","type":"string","indexed":false,"internalType":"string"},{"name":"newUsername","type":"string","indexed":false,"internalType":"string"}],"anonymous":false},{"type":"error","name":"OwnableInvalidOwner","inputs":[{"name":"owner","type":"address","internalType":"address"}]},{"type":"error","name":"OwnableUnauthorizedAccount","inputs":[{"name":"account","type":"address","internalType":"address"}]},{"type":"error","name":"ReentrancyGuardReentrantCall","inputs":[]},{"type":"error","name":"SafeERC20FailedOperation","inputs":[{"name":"token","type":"address","internalType":"address"}]}],"bytecode":{"object":"0x60a06040525f6005555f600655348015610017575f5ffd5b50604051611a05380380611a0583398101604081905261003691610120565b338061005c57604051631e4fbdf760e01b81525f60048201526024015b60405180910390fd5b610065816100d1565b50600180556001600160a01b0381166100c05760405162461bcd60e51b815260206004820152601460248201527f496e76616c6964205553444320616464726573730000000000000000000000006044820152606401610053565b6001600160a01b031660805261014d565b5f80546001600160a01b038381166001600160a01b0319831681178455604051919092169283917f8be0079c531659141344cd1fd0a4f28419497f9722a3daafe3b4186f6b6457e09190a35050565b5f60208284031215610130575f5ffd5b81516001600160a01b0381168114610146575f5ffd5b9392505050565b60805161187661018f5f395f818161013b015281816104400152818161068b015281816108720152818161094801528181610b34015261103501526118765ff3fe608060405234801561000f575f5ffd5b5060043610610132575f3560e01c8063bf40fac1116100b4578063d4c30ceb11610079578063d4c30ceb1461029f578063e045ae32146102a7578063e07a0baa146102ba578063f2fde38b146102cd578063f69c6dec146102e0578063f825f143146102f3575f5ffd5b8063bf40fac114610218578063c320c7271461022b578063c45548fc1461023e578063c96cea701461026c578063ce43c0321461027f575f5ffd5b80633b032005116100fa5780633b032005146101c2578063476343ee146101e5578063715018a6146101ed5780637207dd09146101f55780638da5cb5b14610208575f5ffd5b806311eac8551461013657806314c44e091461017a578063209c95231461019157806323bba2401461019a57806336a94134146101af575b5f5ffd5b61015d7f000000000000000000000000000000000000000000000000000000000000000081565b6040516001600160a01b0390911681526020015b60405180910390f35b61018360055481565b604051908152602001610171565b61018360065481565b6101ad6101a836600461144b565b610327565b005b6101ad6101bd36600461144b565b61057b565b6101d56101d036600461144b565b610747565b6040519015158152602001610171565b6101ad610853565b6101ad61096f565b6101ad6102033660046114a0565b610982565b5f546001600160a01b031661015d565b61015d61022636600461144b565b610c03565b6101ad6102393660046114fa565b610c33565b6101d561024c36600461144b565b805160208183018101805160048252928201919093012091525460ff1681565b6101ad61027a36600461144b565b610c81565b61029261028d366004611511565b610f75565b604051610171919061155f565b61018361101e565b6101ad6102b53660046114fa565b6110ab565b6102926102c8366004611511565b6110f1565b6101ad6102db366004611511565b611188565b6101d56102ee36600461144b565b6111c2565b61015d61030136600461144b565b80516020818301810180516002825292820191909301209152546001600160a01b031681565b61032f6111fd565b5f8151116103585760405162461bcd60e51b815260040161034f90611571565b60405180910390fd5b60208151111561037a5760405162461bcd60e51b815260040161034f906115a8565b61038381610747565b61039f5760405162461bcd60e51b815260040161034f906115d3565b5f6001600160a01b03166002826040516103b9919061160a565b908152604051908190036020019020546001600160a01b0316146103ef5760405162461bcd60e51b815260040161034f90611620565b335f908152600360205260409020805461040890611650565b1590506104275760405162461bcd60e51b815260040161034f90611688565b6006541561046a5760065461046a906001600160a01b037f0000000000000000000000000000000000000000000000000000000000000000169033903090611227565b3360028260405161047b919061160a565b908152604080516020928190038301902080546001600160a01b0319166001600160a01b039490941693909317909255335f9081526003909152206104c0828261170a565b5060016004826040516104d3919061160a565b908152604051908190036020018120805492151560ff199093169290921790915533907fc36d46ad833e5308d16a724481ce4dfa7eeb5b17e6e3871cb5cfca85ae9917999061052390849061155f565b60405180910390a2336001600160a01b03167f810135d029ee569e57844deaa290c06c21b8fda6ce62e6e07a652c4632d1b71a8260016040516105679291906117c5565b60405180910390a261057860018055565b50565b6105836111fd565b5f8151116105a35760405162461bcd60e51b815260040161034f90611571565b6020815111156105c55760405162461bcd60e51b815260040161034f906115a8565b6105ce81610747565b6105ea5760405162461bcd60e51b815260040161034f906115d3565b5f6001600160a01b0316600282604051610604919061160a565b908152604051908190036020019020546001600160a01b03161461063a5760405162461bcd60e51b815260040161034f90611620565b335f908152600360205260409020805461065390611650565b1590506106725760405162461bcd60e51b815260040161034f90611688565b600554156106b5576005546106b5906001600160a01b037f0000000000000000000000000000000000000000000000000000000000000000169033903090611227565b336002826040516106c6919061160a565b908152604080516020928190038301902080546001600160a01b0319166001600160a01b039490941693909317909255335f90815260039091522061070b828261170a565b50336001600160a01b03167f810135d029ee569e57844deaa290c06c21b8fda6ce62e6e07a652c4632d1b71a825f6040516105679291906117c5565b80515f908290820361075b57505f92915050565b5f5b8151811015610849575f828281518110610779576107796117e8565b01602001516001600160f81b0319169050600360fc1b81108015906107ac5750603960f81b6001600160f81b0319821611155b1580156107e25750604160f81b6001600160f81b03198216108015906107e05750602d60f91b6001600160f81b0319821611155b155b80156108175750606160f81b6001600160f81b03198216108015906108155750603d60f91b6001600160f81b0319821611155b155b80156108315750605f60f81b6001600160f81b0319821614155b1561084057505f949350505050565b5060010161075d565b5060019392505050565b61085b611294565b6040516370a0823160e01b81523060048201525f907f00000000000000000000000000000000000000000000000000000000000000006001600160a01b0316906370a0823190602401602060405180830381865afa1580156108bf573d5f5f3e3d5ffd5b505050506040513d601f19601f820116820180604052508101906108e391906117fc565b90505f811161092a5760405162461bcd60e51b81526020600482015260136024820152724e6f206665657320746f20776974686472617760681b604482015260640161034f565b61057861093e5f546001600160a01b031690565b6001600160a01b037f00000000000000000000000000000000000000000000000000000000000000001690836112c0565b610977611294565b6109805f6112f1565b565b61098a6111fd565b5f8351116109aa5760405162461bcd60e51b815260040161034f90611571565b6020835111156109cc5760405162461bcd60e51b815260040161034f906115a8565b6109d583610747565b6109f15760405162461bcd60e51b815260040161034f906115d3565b5f6001600160a01b0316600284604051610a0b919061160a565b908152604051908190036020019020546001600160a01b031614610a415760405162461bcd60e51b815260040161034f90611620565b6001600160a01b0382165f9081526003602052604090208054610a6390611650565b159050610a825760405162461bcd60e51b815260040161034f90611688565b6001600160a01b038216610ad15760405162461bcd60e51b8152602060048201526016602482015275496e76616c69642077616c6c6574206164647265737360501b604482015260640161034f565b60055415610b5e576001600160a01b038116610b235760405162461bcd60e51b815260206004820152601160248201527024b73b30b634b2103332b2903830bcb2b960791b604482015260640161034f565b600554610b5e906001600160a01b037f0000000000000000000000000000000000000000000000000000000000000000169083903090611227565b81600284604051610b6f919061160a565b908152604080516020928190038301902080546001600160a01b0319166001600160a01b039485161790559184165f908152600390915220610bb1848261170a565b50816001600160a01b03167f810135d029ee569e57844deaa290c06c21b8fda6ce62e6e07a652c4632d1b71a845f604051610bed9291906117c5565b60405180910390a2610bfe60018055565b505050565b5f600282604051610c14919061160a565b908152604051908190036020019020546001600160a01b031692915050565b610c3b611294565b600580549082905560408051828152602081018490527f50b218c5a101ad05d53ab0a964d01da639ee79525ae4b7802ed714249740a8d591015b60405180910390a15050565b610c896111fd565b335f9081526003602052604081208054610ca290611650565b80601f0160208091040260200160405190810160405280929190818152602001828054610cce90611650565b8015610d195780601f10610cf057610100808354040283529160200191610d19565b820191905f5260205f20905b815481529060010190602001808311610cfc57829003601f168201915b505050505090505f815111610d685760405162461bcd60e51b81526020600482015260156024820152744e6f20757365726e616d6520746f2075706461746560581b604482015260640161034f565b600481604051610d78919061160a565b9081526040519081900360200190205460ff1615610dd85760405162461bcd60e51b815260206004820152601e60248201527f43616e6e6f7420757064617465207072656d69756d20757365726e616d650000604482015260640161034f565b5f825111610df85760405162461bcd60e51b815260040161034f90611571565b602082511115610e1a5760405162461bcd60e51b815260040161034f906115a8565b610e2382610747565b610e3f5760405162461bcd60e51b815260040161034f906115d3565b5f6001600160a01b0316600283604051610e59919061160a565b908152604051908190036020019020546001600160a01b031614610e8f5760405162461bcd60e51b815260040161034f90611620565b5f600282604051610ea0919061160a565b90815260200160405180910390205f6101000a8154816001600160a01b0302191690836001600160a01b0316021790555033600283604051610ee2919061160a565b908152604080516020928190038301902080546001600160a01b0319166001600160a01b039490941693909317909255335f908152600390915220610f27838261170a565b50336001600160a01b03167f13428138c872937c879d86da5f1947a7625d28588e4f7f2c44bcb70abbd774738284604051610f63929190611813565b60405180910390a25061057860018055565b6001600160a01b0381165f908152600360205260409020805460609190610f9b90611650565b80601f0160208091040260200160405190810160405280929190818152602001828054610fc790611650565b80156110125780601f10610fe957610100808354040283529160200191611012565b820191905f5260205f20905b815481529060010190602001808311610ff557829003601f168201915b50505050509050919050565b6040516370a0823160e01b81523060048201525f907f00000000000000000000000000000000000000000000000000000000000000006001600160a01b0316906370a0823190602401602060405180830381865afa158015611082573d5f5f3e3d5ffd5b505050506040513d601f19601f820116820180604052508101906110a691906117fc565b905090565b6110b3611294565b600680549082905560408051828152602081018490527f530b89ea399e23e81efbf2979ec02ae5af1e52d329d1e6c693489048bf301a879101610c75565b60036020525f90815260409020805461110990611650565b80601f016020809104026020016040519081016040528092919081815260200182805461113590611650565b80156111805780601f1061115757610100808354040283529160200191611180565b820191905f5260205f20905b81548152906001019060200180831161116357829003601f168201915b505050505081565b611190611294565b6001600160a01b0381166111b957604051631e4fbdf760e01b81525f600482015260240161034f565b610578816112f1565b5f5f6001600160a01b03166002836040516111dd919061160a565b908152604051908190036020019020546001600160a01b03161492915050565b60026001540361122057604051633ee5aeb560e01b815260040160405180910390fd5b6002600155565b6040516001600160a01b03848116602483015283811660448301526064820183905261128e9186918216906323b872dd906084015b604051602081830303815290604052915060e01b6020820180516001600160e01b038381831617835250505050611340565b50505050565b5f546001600160a01b031633146109805760405163118cdaa760e01b815233600482015260240161034f565b6040516001600160a01b03838116602483015260448201839052610bfe91859182169063a9059cbb9060640161125c565b5f80546001600160a01b038381166001600160a01b0319831681178455604051919092169283917f8be0079c531659141344cd1fd0a4f28419497f9722a3daafe3b4186f6b6457e09190a35050565b5f5f60205f8451602086015f885af18061135f576040513d5f823e3d81fd5b50505f513d91508115611376578060011415611383565b6001600160a01b0384163b155b1561128e57604051635274afe760e01b81526001600160a01b038516600482015260240161034f565b634e487b7160e01b5f52604160045260245ffd5b5f82601f8301126113cf575f5ffd5b813567ffffffffffffffff8111156113e9576113e96113ac565b604051601f8201601f19908116603f0116810167ffffffffffffffff81118282101715611418576114186113ac565b60405281815283820160200185101561142f575f5ffd5b816020850160208301375f918101602001919091529392505050565b5f6020828403121561145b575f5ffd5b813567ffffffffffffffff811115611471575f5ffd5b61147d848285016113c0565b949350505050565b80356001600160a01b038116811461149b575f5ffd5b919050565b5f5f5f606084860312156114b2575f5ffd5b833567ffffffffffffffff8111156114c8575f5ffd5b6114d4868287016113c0565b9350506114e360208501611485565b91506114f160408501611485565b90509250925092565b5f6020828403121561150a575f5ffd5b5035919050565b5f60208284031215611521575f5ffd5b61152a82611485565b9392505050565b5f81518084528060208401602086015e5f602082860101526020601f19601f83011685010191505092915050565b602081525f61152a6020830184611531565b60208082526018908201527f557365726e616d652063616e6e6f7420626520656d7074790000000000000000604082015260600190565b602080825260119082015270557365726e616d6520746f6f206c6f6e6760781b604082015260600190565b60208082526017908201527f496e76616c696420757365726e616d6520666f726d6174000000000000000000604082015260600190565b5f82518060208501845e5f920191825250919050565b6020808252601690820152752ab9b2b93730b6b29030b63932b0b23c903a30b5b2b760511b604082015260600190565b600181811c9082168061166457607f821691505b60208210810361168257634e487b7160e01b5f52602260045260245ffd5b50919050565b6020808252601c908201527f4164647265737320616c72656164792068617320757365726e616d6500000000604082015260600190565b601f821115610bfe57805f5260205f20601f840160051c810160208510156116e45750805b601f840160051c820191505b81811015611703575f81556001016116f0565b5050505050565b815167ffffffffffffffff811115611724576117246113ac565b611738816117328454611650565b846116bf565b6020601f82116001811461176a575f83156117535750848201515b5f19600385901b1c1916600184901b178455611703565b5f84815260208120601f198516915b828110156117995787850151825560209485019460019092019101611779565b50848210156117b657868401515f19600387901b60f8161c191681555b50505050600190811b01905550565b604081525f6117d76040830185611531565b905082151560208301529392505050565b634e487b7160e01b5f52603260045260245ffd5b5f6020828403121561180c575f5ffd5b5051919050565b604081525f6118256040830185611531565b82810360208401526118378185611531565b9594505050505056fea26469706673582212204aa94def644a69f2be419e9c2daae0e0c48568186107820974ed9b8502b5df9c64736f6c634300081c0033","linkReferences":{}},"methodIdentifiers":{"addressToUsername(address)":"e07a0baa","getAddress(string)":"bf40fac1","getFeeBalance()":"d4c30ceb","getUsername(address)":"ce43c032","isUsernameAvailable(string)":"f69c6dec","isValidUsername(string)":"3b032005","owner()":"8da5cb5b","premiumFee()":"209c9523","premiumUsernames(string)":"c45548fc","registerPremiumUsername(string)":"23bba240","registerUsername(string)":"36a94134","registerUsernameForAddress(string,address,address)":"7207dd09","registrationFee()":"14c44e09","renounceOwnership()":"715018a6","setPremiumFee(uint256)":"e045ae32","setRegistrationFee(uint256)":"c320c727","transferOwnership(address)":"f2fde38b","updateUsername(string)":"c96cea70","usdcToken()":"11eac855","usernameToAddress(string)":"f825f143","withdrawFees()":"476343ee"},"id":1}